{
  "contractName": "RealEstate",
  "abi": [
    {
      "inputs": [],
      "payable": false,
      "stateMutability": "nonpayable",
      "type": "constructor"
    },
    {
      "anonymous": false,
      "inputs": [
        {
          "indexed": true,
          "internalType": "address",
          "name": "owner",
          "type": "address"
        },
        {
          "indexed": true,
          "internalType": "address",
          "name": "approved",
          "type": "address"
        },
        {
          "indexed": true,
          "internalType": "uint256",
          "name": "tokenId",
          "type": "uint256"
        }
      ],
      "name": "Approval",
      "type": "event"
    },
    {
      "anonymous": false,
      "inputs": [
        {
          "indexed": true,
          "internalType": "address",
          "name": "owner",
          "type": "address"
        },
        {
          "indexed": true,
          "internalType": "address",
          "name": "operator",
          "type": "address"
        },
        {
          "indexed": false,
          "internalType": "bool",
          "name": "approved",
          "type": "bool"
        }
      ],
      "name": "ApprovalForAll",
      "type": "event"
    },
    {
      "anonymous": false,
      "inputs": [
        {
          "indexed": true,
          "internalType": "address",
          "name": "from",
          "type": "address"
        },
        {
          "indexed": true,
          "internalType": "address",
          "name": "to",
          "type": "address"
        },
        {
          "indexed": true,
          "internalType": "uint256",
          "name": "tokenId",
          "type": "uint256"
        },
        {
          "indexed": false,
          "internalType": "uint256",
          "name": "price",
          "type": "uint256"
        }
      ],
      "name": "Transfer",
      "type": "event"
    },
    {
      "anonymous": false,
      "inputs": [
        {
          "indexed": true,
          "internalType": "address",
          "name": "from",
          "type": "address"
        },
        {
          "indexed": true,
          "internalType": "address",
          "name": "to",
          "type": "address"
        },
        {
          "indexed": true,
          "internalType": "uint256",
          "name": "tokenId",
          "type": "uint256"
        }
      ],
      "name": "Transfer",
      "type": "event"
    },
    {
      "constant": true,
      "inputs": [
        {
          "internalType": "uint256",
          "name": "",
          "type": "uint256"
        }
      ],
      "name": "assetApprovals",
      "outputs": [
        {
          "internalType": "address",
          "name": "",
          "type": "address"
        }
      ],
      "payable": false,
      "stateMutability": "view",
      "type": "function"
    },
    {
      "constant": true,
      "inputs": [
        {
          "internalType": "uint256",
          "name": "",
          "type": "uint256"
        }
      ],
      "name": "assetMap",
      "outputs": [
        {
          "internalType": "uint256",
          "name": "assetId",
          "type": "uint256"
        },
        {
          "internalType": "uint256",
          "name": "price",
          "type": "uint256"
        }
      ],
      "payable": false,
      "stateMutability": "view",
      "type": "function"
    },
    {
      "constant": true,
      "inputs": [],
      "name": "assetsCount",
      "outputs": [
        {
          "internalType": "uint256",
          "name": "",
          "type": "uint256"
        }
      ],
      "payable": false,
      "stateMutability": "view",
      "type": "function"
    },
    {
      "constant": true,
      "inputs": [
        {
          "internalType": "address",
          "name": "owner",
          "type": "address"
        },
        {
          "internalType": "address",
          "name": "operator",
          "type": "address"
        }
      ],
      "name": "isApprovedForAll",
      "outputs": [
        {
          "internalType": "bool",
          "name": "",
          "type": "bool"
        }
      ],
      "payable": false,
      "stateMutability": "view",
      "type": "function"
    },
    {
      "constant": false,
      "inputs": [
        {
          "internalType": "address",
          "name": "from",
          "type": "address"
        },
        {
          "internalType": "address",
          "name": "to",
          "type": "address"
        },
        {
          "internalType": "uint256",
          "name": "tokenId",
          "type": "uint256"
        }
      ],
      "name": "safeTransferFrom",
      "outputs": [],
      "payable": false,
      "stateMutability": "nonpayable",
      "type": "function"
    },
    {
      "constant": false,
      "inputs": [
        {
          "internalType": "address",
          "name": "from",
          "type": "address"
        },
        {
          "internalType": "address",
          "name": "to",
          "type": "address"
        },
        {
          "internalType": "uint256",
          "name": "tokenId",
          "type": "uint256"
        },
        {
          "internalType": "bytes",
          "name": "_data",
          "type": "bytes"
        }
      ],
      "name": "safeTransferFrom",
      "outputs": [],
      "payable": false,
      "stateMutability": "nonpayable",
      "type": "function"
    },
    {
      "constant": true,
      "inputs": [],
      "name": "supervisor",
      "outputs": [
        {
          "internalType": "address",
          "name": "",
          "type": "address"
        }
      ],
      "payable": false,
      "stateMutability": "view",
      "type": "function"
    },
    {
      "constant": true,
      "inputs": [
        {
          "internalType": "bytes4",
          "name": "interfaceId",
          "type": "bytes4"
        }
      ],
      "name": "supportsInterface",
      "outputs": [
        {
          "internalType": "bool",
          "name": "",
          "type": "bool"
        }
      ],
      "payable": false,
      "stateMutability": "view",
      "type": "function"
    },
    {
      "constant": true,
      "inputs": [],
      "name": "exposeSupervisor",
      "outputs": [
        {
          "internalType": "address",
          "name": "",
          "type": "address"
        }
      ],
      "payable": false,
      "stateMutability": "view",
      "type": "function"
    },
    {
      "constant": true,
      "inputs": [
        {
          "internalType": "address",
          "name": "owner",
          "type": "address"
        }
      ],
      "name": "balanceOf",
      "outputs": [
        {
          "internalType": "uint256",
          "name": "",
          "type": "uint256"
        }
      ],
      "payable": false,
      "stateMutability": "view",
      "type": "function"
    },
    {
      "constant": true,
      "inputs": [],
      "name": "balanceOf",
      "outputs": [
        {
          "internalType": "uint256",
          "name": "",
          "type": "uint256"
        }
      ],
      "payable": false,
      "stateMutability": "view",
      "type": "function"
    },
    {
      "constant": true,
      "inputs": [
        {
          "internalType": "uint256",
          "name": "assetId",
          "type": "uint256"
        }
      ],
      "name": "ownerOf",
      "outputs": [
        {
          "internalType": "address",
          "name": "",
          "type": "address"
        }
      ],
      "payable": false,
      "stateMutability": "view",
      "type": "function"
    },
    {
      "constant": false,
      "inputs": [
        {
          "internalType": "uint256",
          "name": "assetId",
          "type": "uint256"
        }
      ],
      "name": "transferFrom",
      "outputs": [],
      "payable": true,
      "stateMutability": "payable",
      "type": "function"
    },
    {
      "constant": false,
      "inputs": [
        {
          "internalType": "address",
          "name": "from",
          "type": "address"
        },
        {
          "internalType": "address",
          "name": "to",
          "type": "address"
        },
        {
          "internalType": "uint256",
          "name": "tokenId",
          "type": "uint256"
        }
      ],
      "name": "transferFrom",
      "outputs": [],
      "payable": false,
      "stateMutability": "nonpayable",
      "type": "function"
    },
    {
      "constant": false,
      "inputs": [
        {
          "internalType": "address",
          "name": "to",
          "type": "address"
        },
        {
          "internalType": "uint256",
          "name": "assetId",
          "type": "uint256"
        }
      ],
      "name": "approve",
      "outputs": [],
      "payable": false,
      "stateMutability": "nonpayable",
      "type": "function"
    },
    {
      "constant": true,
      "inputs": [
        {
          "internalType": "uint256",
          "name": "assetId",
          "type": "uint256"
        }
      ],
      "name": "getApproved",
      "outputs": [
        {
          "internalType": "address",
          "name": "",
          "type": "address"
        }
      ],
      "payable": false,
      "stateMutability": "view",
      "type": "function"
    },
    {
      "constant": true,
      "inputs": [
        {
          "internalType": "uint256",
          "name": "assetId",
          "type": "uint256"
        }
      ],
      "name": "assetValue",
      "outputs": [
        {
          "internalType": "uint256",
          "name": "",
          "type": "uint256"
        }
      ],
      "payable": false,
      "stateMutability": "view",
      "type": "function"
    },
    {
      "constant": false,
      "inputs": [
        {
          "internalType": "uint256",
          "name": "price",
          "type": "uint256"
        },
        {
          "internalType": "address",
          "name": "to",
          "type": "address"
        }
      ],
      "name": "addAsset",
      "outputs": [],
      "payable": false,
      "stateMutability": "nonpayable",
      "type": "function"
    },
    {
      "constant": false,
      "inputs": [
        {
          "internalType": "uint256",
          "name": "assetId",
          "type": "uint256"
        },
        {
          "internalType": "address",
          "name": "approved",
          "type": "address"
        }
      ],
      "name": "clearApproval",
      "outputs": [],
      "payable": false,
      "stateMutability": "nonpayable",
      "type": "function"
    },
    {
      "constant": false,
      "inputs": [
        {
          "internalType": "uint256",
          "name": "assetId",
          "type": "uint256"
        },
        {
          "internalType": "uint256",
          "name": "value",
          "type": "uint256"
        }
      ],
      "name": "build",
      "outputs": [],
      "payable": true,
      "stateMutability": "payable",
      "type": "function"
    },
    {
      "constant": false,
      "inputs": [
        {
          "internalType": "uint256",
          "name": "assetId",
          "type": "uint256"
        },
        {
          "internalType": "uint256",
          "name": "value",
          "type": "uint256"
        }
      ],
      "name": "appreciate",
      "outputs": [],
      "payable": false,
      "stateMutability": "nonpayable",
      "type": "function"
    },
    {
      "constant": false,
      "inputs": [
        {
          "internalType": "uint256",
          "name": "assetId",
          "type": "uint256"
        },
        {
          "internalType": "uint256",
          "name": "value",
          "type": "uint256"
        }
      ],
      "name": "depreciate",
      "outputs": [],
      "payable": false,
      "stateMutability": "nonpayable",
      "type": "function"
    },
    {
      "constant": true,
      "inputs": [],
      "name": "getAssetsSize",
      "outputs": [
        {
          "internalType": "uint256",
          "name": "",
          "type": "uint256"
        }
      ],
      "payable": false,
      "stateMutability": "view",
      "type": "function"
    },
    {
      "constant": false,
      "inputs": [
        {
          "internalType": "address",
          "name": "to",
          "type": "address"
        },
        {
          "internalType": "bool",
          "name": "approved",
          "type": "bool"
        }
      ],
      "name": "setApprovalForAll",
      "outputs": [],
      "payable": false,
      "stateMutability": "nonpayable",
      "type": "function"
    }
  ],
  "bytecode": "0x60806040523480156200001157600080fd5b506200002a6301ffc9a760e01b6200008960201b60201c565b620000426380ac58cd60e01b6200008960201b60201c565b33600760006101000a81548173ffffffffffffffffffffffffffffffffffffffff021916908373ffffffffffffffffffffffffffffffffffffffff16021790555062000192565b63ffffffff60e01b817bffffffffffffffffffffffffffffffffffffffffffffffffffffffff1916141562000126576040517f08c379a000000000000000000000000000000000000000000000000000000000815260040180806020018281038252601c8152602001807f4552433136353a20696e76616c696420696e746572666163652069640000000081525060200191505060405180910390fd5b6001600080837bffffffffffffffffffffffffffffffffffffffffffffffffffffffff19167bffffffffffffffffffffffffffffffffffffffffffffffffffffffff1916815260200190815260200160002060006101000a81548160ff02191690831515021790555050565b61288c80620001a26000396000f3fe60806040526004361061014b5760003560e01c806357e937c5116100b6578063a22cb4651161006f578063a22cb46514610786578063b88d4fde146107e3578063cd9df190146108f5578063daa5fe2d14610920578063e985e9c51461097b578063fc85596014610a045761014b565b806357e937c5146105b95780636352211e1461060857806370a0823114610683578063722713f7146106e857806377a11f7e146107135780639f980f91146107415761014b565b8063271acaf311610108578063271acaf3146103e45780632b34af511461041c57806336448b041461046157806342842e0e1461048c57806351c8c3f11461050757806356e4b68b146105625761014b565b806301ffc9a71461015057806303385770146101c2578063081812fc1461023d578063095ea7b3146102b8578063129f90081461031357806323b872dd14610369575b600080fd5b34801561015c57600080fd5b506101a86004803603602081101561017357600080fd5b8101908080357bffffffffffffffffffffffffffffffffffffffffffffffffffffffff19169060200190929190505050610a5b565b604051808215151515815260200191505060405180910390f35b3480156101ce57600080fd5b506101fb600480360360208110156101e557600080fd5b8101908080359060200190929190505050610ac2565b604051808273ffffffffffffffffffffffffffffffffffffffff1673ffffffffffffffffffffffffffffffffffffffff16815260200191505060405180910390f35b34801561024957600080fd5b506102766004803603602081101561026057600080fd5b8101908080359060200190929190505050610af5565b604051808273ffffffffffffffffffffffffffffffffffffffff1673ffffffffffffffffffffffffffffffffffffffff16815260200191505060405180910390f35b3480156102c457600080fd5b50610311600480360360408110156102db57600080fd5b81019080803573ffffffffffffffffffffffffffffffffffffffff16906020019092919080359060200190929190505050610bad565b005b34801561031f57600080fd5b5061034c6004803603602081101561033657600080fd5b8101908080359060200190929190505050610daf565b604051808381526020018281526020019250505060405180910390f35b34801561037557600080fd5b506103e26004803603606081101561038c57600080fd5b81019080803573ffffffffffffffffffffffffffffffffffffffff169060200190929190803573ffffffffffffffffffffffffffffffffffffffff16906020019092919080359060200190929190505050610dd3565b005b61041a600480360360408110156103fa57600080fd5b810190808035906020019092919080359060200190929190505050610e42565b005b34801561042857600080fd5b5061045f6004803603604081101561043f57600080fd5b810190808035906020019092919080359060200190929190505050610f48565b005b34801561046d57600080fd5b50610476611095565b6040518082815260200191505060405180910390f35b34801561049857600080fd5b50610505600480360360608110156104af57600080fd5b81019080803573ffffffffffffffffffffffffffffffffffffffff169060200190929190803573ffffffffffffffffffffffffffffffffffffffff1690602001909291908035906020019092919050505061109f565b005b34801561051357600080fd5b506105606004803603604081101561052a57600080fd5b8101908080359060200190929190803573ffffffffffffffffffffffffffffffffffffffff1690602001909291905050506110bf565b005b34801561056e57600080fd5b506105776111e1565b604051808273ffffffffffffffffffffffffffffffffffffffff1673ffffffffffffffffffffffffffffffffffffffff16815260200191505060405180910390f35b3480156105c557600080fd5b506105f2600480360360208110156105dc57600080fd5b8101908080359060200190929190505050611207565b6040518082815260200191505060405180910390f35b34801561061457600080fd5b506106416004803603602081101561062b57600080fd5b8101908080359060200190929190505050611227565b604051808273ffffffffffffffffffffffffffffffffffffffff1673ffffffffffffffffffffffffffffffffffffffff16815260200191505060405180910390f35b34801561068f57600080fd5b506106d2600480360360208110156106a657600080fd5b81019080803573ffffffffffffffffffffffffffffffffffffffff16906020019092919050505061130c565b6040518082815260200191505060405180910390f35b3480156106f457600080fd5b506106fd6113e1565b6040518082815260200191505060405180910390f35b61073f6004803603602081101561072957600080fd5b81019080803590602001909291905050506114ad565b005b34801561074d57600080fd5b506107846004803603604081101561076457600080fd5b810190808035906020019092919080359060200190929190505050611776565b005b34801561079257600080fd5b506107e1600480360360408110156107a957600080fd5b81019080803573ffffffffffffffffffffffffffffffffffffffff1690602001909291908035151590602001909291905050506118c3565b005b3480156107ef57600080fd5b506108f36004803603608081101561080657600080fd5b81019080803573ffffffffffffffffffffffffffffffffffffffff169060200190929190803573ffffffffffffffffffffffffffffffffffffffff169060200190929190803590602001909291908035906020019064010000000081111561086d57600080fd5b82018360208201111561087f57600080fd5b803590602001918460018302840111640100000000831117156108a157600080fd5b91908080601f016020809104026020016040519081016040528093929190818152602001838380828437600081840152601f19601f820116905080830192505050505050509192919290505050611a66565b005b34801561090157600080fd5b5061090a611ad8565b6040518082815260200191505060405180910390f35b34801561092c57600080fd5b506109796004803603604081101561094357600080fd5b8101908080359060200190929190803573ffffffffffffffffffffffffffffffffffffffff169060200190929190505050611ade565b005b34801561098757600080fd5b506109ea6004803603604081101561099e57600080fd5b81019080803573ffffffffffffffffffffffffffffffffffffffff169060200190929190803573ffffffffffffffffffffffffffffffffffffffff169060200190929190505050611b9d565b604051808215151515815260200191505060405180910390f35b348015610a1057600080fd5b50610a19611c31565b604051808273ffffffffffffffffffffffffffffffffffffffff1673ffffffffffffffffffffffffffffffffffffffff16815260200191505060405180910390f35b6000806000837bffffffffffffffffffffffffffffffffffffffffffffffffffffffff19167bffffffffffffffffffffffffffffffffffffffffffffffffffffffff1916815260200190815260200160002060009054906101000a900460ff169050919050565b600a6020528060005260406000206000915054906101000a900473ffffffffffffffffffffffffffffffffffffffff1681565b6000610b0082611c5b565b610b72576040517f08c379a000000000000000000000000000000000000000000000000000000000815260040180806020018281038252600f8152602001807f546f6b656e206e6f74206578697374000000000000000000000000000000000081525060200191505060405180910390fd5b600a600083815260200190815260200160002060009054906101000a900473ffffffffffffffffffffffffffffffffffffffff169050919050565b6000610bb882611227565b90508073ffffffffffffffffffffffffffffffffffffffff168373ffffffffffffffffffffffffffffffffffffffff161415610c5c576040517f08c379a000000000000000000000000000000000000000000000000000000000815260040180806020018281038252600d8152602001807f43757272656e74204f776e65720000000000000000000000000000000000000081525060200191505060405180910390fd5b8073ffffffffffffffffffffffffffffffffffffffff163373ffffffffffffffffffffffffffffffffffffffff1614610cfd576040517f08c379a000000000000000000000000000000000000000000000000000000000815260040180806020018281038252600f8152602001807f4e6f74206173736574206f776e6572000000000000000000000000000000000081525060200191505060405180910390fd5b82600a600084815260200190815260200160002060006101000a81548173ffffffffffffffffffffffffffffffffffffffff021916908373ffffffffffffffffffffffffffffffffffffffff160217905550818373ffffffffffffffffffffffffffffffffffffffff168273ffffffffffffffffffffffffffffffffffffffff167f8c5be1e5ebec7d5bd14f71427d1e84f3dd0314c0f7b2291e5b200ac8c7c3b92560405160405180910390a4505050565b60066020528060005260406000206000915090508060000154908060010154905082565b610ddd3382611cc7565b610e32576040517f08c379a00000000000000000000000000000000000000000000000000000000081526004018080602001828103825260318152602001806128276031913960400191505060405180910390fd5b610e3d838383611dbb565b505050565b610e4c3383612016565b610ebe576040517f08c379a00000000000000000000000000000000000000000000000000000000081526004018080602001828103825260158152602001807f4e6f7420616e20617070726f766564204f776e6572000000000000000000000081525060200191505060405180910390fd5b610ec6612715565b6006600084815260200190815260200160002060405180604001604052908160008201548152602001600182015481525050905060405180604001604052808260000151815260200183836020015101815250600660008581526020019081526020016000206000820151816000015560208201518160010155905050505050565b600760009054906101000a900473ffffffffffffffffffffffffffffffffffffffff1673ffffffffffffffffffffffffffffffffffffffff163373ffffffffffffffffffffffffffffffffffffffff161461100b576040517f08c379a000000000000000000000000000000000000000000000000000000000815260040180806020018281038252600d8152602001807f4e6f742061206d616e616765720000000000000000000000000000000000000081525060200191505060405180910390fd5b611013612715565b6006600084815260200190815260200160002060405180604001604052908160008201548152602001600182015481525050905060405180604001604052808260000151815260200183836020015101815250600660008581526020019081526020016000206000820151816000015560208201518160010155905050505050565b6000600554905090565b6110ba83838360405180602001604052806000815250611a66565b505050565b3373ffffffffffffffffffffffffffffffffffffffff16600760009054906101000a900473ffffffffffffffffffffffffffffffffffffffff1673ffffffffffffffffffffffffffffffffffffffff1614611182576040517f08c379a000000000000000000000000000000000000000000000000000000000815260040180806020018281038252600e8152602001807f4e6f742053757065727669736f7200000000000000000000000000000000000081525060200191505060405180910390fd5b604051806040016040528060055481526020018381525060066000600554815260200190815260200160002060008201518160000155602082015181600101559050506111d1816005546120f9565b6001600554016005819055505050565b600760009054906101000a900473ffffffffffffffffffffffffffffffffffffffff1681565b600060066000838152602001908152602001600020600101549050919050565b6000806008600084815260200190815260200160002060009054906101000a900473ffffffffffffffffffffffffffffffffffffffff169050600073ffffffffffffffffffffffffffffffffffffffff168173ffffffffffffffffffffffffffffffffffffffff161415611303576040517f08c379a00000000000000000000000000000000000000000000000000000000081526004018080602001828103825260108152602001807f4e6f204173736574206973207265616c0000000000000000000000000000000081525060200191505060405180910390fd5b80915050919050565b60008073ffffffffffffffffffffffffffffffffffffffff168273ffffffffffffffffffffffffffffffffffffffff161415611393576040517f08c379a000000000000000000000000000000000000000000000000000000000815260040180806020018281038252602a8152602001806127b2602a913960400191505060405180910390fd5b6113da600360008473ffffffffffffffffffffffffffffffffffffffff1673ffffffffffffffffffffffffffffffffffffffff168152602001908152602001600020612319565b9050919050565b60008073ffffffffffffffffffffffffffffffffffffffff163373ffffffffffffffffffffffffffffffffffffffff161415611468576040517f08c379a00000000000000000000000000000000000000000000000000000000081526004018080602001828103825260228152602001806127dc6022913960400191505060405180910390fd5b600960003373ffffffffffffffffffffffffffffffffffffffff1673ffffffffffffffffffffffffffffffffffffffff16815260200190815260200160002054905090565b6114b73382612016565b611529576040517f08c379a00000000000000000000000000000000000000000000000000000000081526004018080602001828103825260198152602001807f4e65697468657220617070726f766564206f72206f776e65720000000000000081525060200191505060405180910390fd5b60066000828152602001908152602001600020600101543410156115b5576040517f08c379a00000000000000000000000000000000000000000000000000000000081526004018080602001828103825260148152602001807f5061796d656e7420756e73756666696369656e7400000000000000000000000081525060200191505060405180910390fd5b6115c7816115c283610af5565b611ade565b60006115d282611227565b9050600960008273ffffffffffffffffffffffffffffffffffffffff1673ffffffffffffffffffffffffffffffffffffffff1681526020019081526020016000206000815480929190600190039190505550600960003373ffffffffffffffffffffffffffffffffffffffff1673ffffffffffffffffffffffffffffffffffffffff16815260200190815260200160002060008154809291906001019190505550336008600084815260200190815260200160002060006101000a81548173ffffffffffffffffffffffffffffffffffffffff021916908373ffffffffffffffffffffffffffffffffffffffff1602179055508073ffffffffffffffffffffffffffffffffffffffff166108fc349081150290604051600060405180830381858888f1935050505015801561170b573d6000803e3d6000fd5b50813373ffffffffffffffffffffffffffffffffffffffff168273ffffffffffffffffffffffffffffffffffffffff167f9ed053bb818ff08b8353cd46f78db1f0799f31c9e4458fdb425c10eccd2efc44346040518082815260200191505060405180910390a45050565b600760009054906101000a900473ffffffffffffffffffffffffffffffffffffffff1673ffffffffffffffffffffffffffffffffffffffff163373ffffffffffffffffffffffffffffffffffffffff1614611839576040517f08c379a000000000000000000000000000000000000000000000000000000000815260040180806020018281038252600d8152602001807f4e6f742061204d616e616765720000000000000000000000000000000000000081525060200191505060405180910390fd5b611841612715565b6006600084815260200190815260200160002060405180604001604052908160008201548152602001600182015481525050905060405180604001604052808260000151815260200183836020015103815250600660008581526020019081526020016000206000820151816000015560208201518160010155905050505050565b3373ffffffffffffffffffffffffffffffffffffffff168273ffffffffffffffffffffffffffffffffffffffff161415611965576040517f08c379a00000000000000000000000000000000000000000000000000000000081526004018080602001828103825260198152602001807f4552433732313a20617070726f766520746f2063616c6c65720000000000000081525060200191505060405180910390fd5b80600b60003373ffffffffffffffffffffffffffffffffffffffff1673ffffffffffffffffffffffffffffffffffffffff16815260200190815260200160002060008473ffffffffffffffffffffffffffffffffffffffff1673ffffffffffffffffffffffffffffffffffffffff16815260200190815260200160002060006101000a81548160ff0219169083151502179055508173ffffffffffffffffffffffffffffffffffffffff163373ffffffffffffffffffffffffffffffffffffffff167f17307eab39ab6107e8899845ad3d59bd9653f200f220920489ca2b5937696c3183604051808215151515815260200191505060405180910390a35050565b611a71848484610dd3565b611a7d84848484612327565b611ad2576040517f08c379a00000000000000000000000000000000000000000000000000000000081526004018080602001828103825260328152602001806127306032913960400191505060405180910390fd5b50505050565b60055481565b8073ffffffffffffffffffffffffffffffffffffffff16600a600084815260200190815260200160002060009054906101000a900473ffffffffffffffffffffffffffffffffffffffff1673ffffffffffffffffffffffffffffffffffffffff161415611b99576000600a600084815260200190815260200160002060006101000a81548173ffffffffffffffffffffffffffffffffffffffff021916908373ffffffffffffffffffffffffffffffffffffffff1602179055505b5050565b6000600460008473ffffffffffffffffffffffffffffffffffffffff1673ffffffffffffffffffffffffffffffffffffffff16815260200190815260200160002060008373ffffffffffffffffffffffffffffffffffffffff1673ffffffffffffffffffffffffffffffffffffffff16815260200190815260200160002060009054906101000a900460ff16905092915050565b6000600760009054906101000a900473ffffffffffffffffffffffffffffffffffffffff16905090565b60008073ffffffffffffffffffffffffffffffffffffffff166008600084815260200190815260200160002060009054906101000a900473ffffffffffffffffffffffffffffffffffffffff1673ffffffffffffffffffffffffffffffffffffffff1614159050919050565b6000611cd282612510565b611d27576040517f08c379a000000000000000000000000000000000000000000000000000000000815260040180806020018281038252602c815260200180612786602c913960400191505060405180910390fd5b6000611d3283611227565b90508073ffffffffffffffffffffffffffffffffffffffff168473ffffffffffffffffffffffffffffffffffffffff161480611da157508373ffffffffffffffffffffffffffffffffffffffff16611d8984610af5565b73ffffffffffffffffffffffffffffffffffffffff16145b80611db25750611db18185611b9d565b5b91505092915050565b8273ffffffffffffffffffffffffffffffffffffffff16611ddb82611227565b73ffffffffffffffffffffffffffffffffffffffff1614611e47576040517f08c379a00000000000000000000000000000000000000000000000000000000081526004018080602001828103825260298152602001806127fe6029913960400191505060405180910390fd5b600073ffffffffffffffffffffffffffffffffffffffff168273ffffffffffffffffffffffffffffffffffffffff161415611ecd576040517f08c379a00000000000000000000000000000000000000000000000000000000081526004018080602001828103825260248152602001806127626024913960400191505060405180910390fd5b611ed681612582565b611f1d600360008573ffffffffffffffffffffffffffffffffffffffff1673ffffffffffffffffffffffffffffffffffffffff168152602001908152602001600020612640565b611f64600360008473ffffffffffffffffffffffffffffffffffffffff1673ffffffffffffffffffffffffffffffffffffffff168152602001908152602001600020612663565b816001600083815260200190815260200160002060006101000a81548173ffffffffffffffffffffffffffffffffffffffff021916908373ffffffffffffffffffffffffffffffffffffffff160217905550808273ffffffffffffffffffffffffffffffffffffffff168473ffffffffffffffffffffffffffffffffffffffff167fddf252ad1be2c89b69c2b068fc378daa952ba7f163c4a11628f55a4df523b3ef60405160405180910390a4505050565b600061202182611c5b565b612076576040517f08c379a000000000000000000000000000000000000000000000000000000000815260040180806020018281038252602c815260200180612786602c913960400191505060405180910390fd5b600061208183611227565b90508073ffffffffffffffffffffffffffffffffffffffff168473ffffffffffffffffffffffffffffffffffffffff1614806120f057508373ffffffffffffffffffffffffffffffffffffffff166120d884610af5565b73ffffffffffffffffffffffffffffffffffffffff16145b91505092915050565b600073ffffffffffffffffffffffffffffffffffffffff168273ffffffffffffffffffffffffffffffffffffffff16141561219c576040517f08c379a00000000000000000000000000000000000000000000000000000000081526004018080602001828103825260138152602001807f5a65726f416464726573734d696e6974696e670000000000000000000000000081525060200191505060405180910390fd5b6121a581611c5b565b15612218576040517f08c379a000000000000000000000000000000000000000000000000000000000815260040180806020018281038252600e8152602001807f416c7265616479204d696e74656400000000000000000000000000000000000081525060200191505060405180910390fd5b816008600083815260200190815260200160002060006101000a81548173ffffffffffffffffffffffffffffffffffffffff021916908373ffffffffffffffffffffffffffffffffffffffff160217905550600960008373ffffffffffffffffffffffffffffffffffffffff1673ffffffffffffffffffffffffffffffffffffffff16815260200190815260200160002060008154809291906001019190505550808273ffffffffffffffffffffffffffffffffffffffff16600073ffffffffffffffffffffffffffffffffffffffff167fddf252ad1be2c89b69c2b068fc378daa952ba7f163c4a11628f55a4df523b3ef60405160405180910390a45050565b600081600001549050919050565b60006123488473ffffffffffffffffffffffffffffffffffffffff16612679565b6123555760019050612508565b60008473ffffffffffffffffffffffffffffffffffffffff1663150b7a02338887876040518563ffffffff1660e01b8152600401808573ffffffffffffffffffffffffffffffffffffffff1673ffffffffffffffffffffffffffffffffffffffff1681526020018473ffffffffffffffffffffffffffffffffffffffff1673ffffffffffffffffffffffffffffffffffffffff16815260200183815260200180602001828103825283818151815260200191508051906020019080838360005b83811015612430578082015181840152602081019050612415565b50505050905090810190601f16801561245d5780820380516001836020036101000a031916815260200191505b5095505050505050602060405180830381600087803b15801561247f57600080fd5b505af1158015612493573d6000803e3d6000fd5b505050506040513d60208110156124a957600080fd5b8101908080519060200190929190505050905063150b7a0260e01b7bffffffffffffffffffffffffffffffffffffffffffffffffffffffff1916817bffffffffffffffffffffffffffffffffffffffffffffffffffffffff1916149150505b949350505050565b6000806001600084815260200190815260200160002060009054906101000a900473ffffffffffffffffffffffffffffffffffffffff169050600073ffffffffffffffffffffffffffffffffffffffff168173ffffffffffffffffffffffffffffffffffffffff161415915050919050565b600073ffffffffffffffffffffffffffffffffffffffff166002600083815260200190815260200160002060009054906101000a900473ffffffffffffffffffffffffffffffffffffffff1673ffffffffffffffffffffffffffffffffffffffff161461263d5760006002600083815260200190815260200160002060006101000a81548173ffffffffffffffffffffffffffffffffffffffff021916908373ffffffffffffffffffffffffffffffffffffffff1602179055505b50565b6126586001826000015461268c90919063ffffffff16565b816000018190555050565b6001816000016000828254019250508190555050565b600080823b905060008111915050919050565b600082821115612704576040517f08c379a000000000000000000000000000000000000000000000000000000000815260040180806020018281038252601e8152602001807f536166654d6174683a207375627472616374696f6e206f766572666c6f77000081525060200191505060405180910390fd5b600082840390508091505092915050565b60405180604001604052806000815260200160008152509056fe4552433732313a207472616e7366657220746f206e6f6e20455243373231526563656976657220696d706c656d656e7465724552433732313a207472616e7366657220746f20746865207a65726f20616464726573734552433732313a206f70657261746f7220717565727920666f72206e6f6e6578697374656e7420746f6b656e4552433732313a2062616c616e636520717565727920666f7220746865207a65726f206164647265737342616c616e636520717565727920666f7220746865207a65726f20616464726573734552433732313a207472616e73666572206f6620746f6b656e2074686174206973206e6f74206f776e4552433732313a207472616e736665722063616c6c6572206973206e6f74206f776e6572206e6f7220617070726f766564a265627a7a72315820118976fe3b84daa4db8d46f91c95c079d961df203e3149f646e33ff547364cb864736f6c63430005110032",
  "source": "pragma solidity ^0.5.8;\n\nimport \"./helper_contracts/ERC721.sol\";\n\n///@title Real Estate Exchange\n///@author Roberto Carlos\n///@notice This contract represents a property exchange market\n\ncontract RealEstate is ERC721 {\n    struct Asset {\n        uint256 assetId;\n        uint256 price;\n    }\n\n    uint256 public assetsCount;\n    mapping(uint256 => Asset) public assetMap;\n\n    address public supervisor;\n\n    mapping(uint256 => address) private assetOwner;\n    mapping(address => uint256) private ownedAssetsCount;\n    mapping(uint256 => address) public assetApprovals;\n\n    constructor() public {\n        supervisor = msg.sender;\n    }\n\n\n    //Events\n    event Transfer(address indexed from, address indexed to, uint256 indexed tokenId, uint256 price);\n    event Approval(address indexed owner, address indexed approved, uint256 indexed tokenId);\n\n    function exposeSupervisor() public view returns (address) {\n        return supervisor;\n    }\n\n    /// Functions inherit from ERC721 ///\n\n    function balanceOf() public view returns (uint256) {\n        require(msg.sender != address(0), \"Balance query for the zero address\");\n\n        return ownedAssetsCount[msg.sender];\n    }\n\n    function ownerOf(uint256 assetId) public view returns (address) {\n        address owner = assetOwner[assetId];\n        require(owner != address(0), 'No Asset is real');\n        return owner;\n    }\n\n    function transferFrom(uint256 assetId) public payable {\n        require(isApprovedOrOwner(msg.sender, assetId), 'Neither approved or owner');\n        require(msg.value >= assetMap[assetId].price, 'Payment unsufficient');\n        clearApproval(assetId, getApproved(assetId));\n        address payable _seller = address(uint160(ownerOf(assetId)));\n\n        ownedAssetsCount[_seller]--;\n\n        ownedAssetsCount[msg.sender]++;\n        assetOwner[assetId] = msg.sender;\n        _seller.transfer(msg.value);\n        emit Transfer(_seller, msg.sender, assetId, msg.value);\n    }\n\n    function approve(address to, uint256 assetId) public {\n        address owner = ownerOf(assetId);\n        require(to != owner, \"Current Owner\");\n        require(msg.sender == owner, \"Not asset owner\");\n        assetApprovals[assetId] = to;\n        emit Approval(owner, to, assetId);\n    }\n\n    function getApproved(uint256 assetId) public view returns (address) {\n        require(exists(assetId), \"Token not exist\");\n        return assetApprovals[assetId];\n    }\n\n    // Additional functions added to the token //\n\n    function assetValue(uint256 assetId) public view returns(uint256) {\n        return assetMap[assetId].price;\n    }\n\n    function addAsset(uint256 price, address to) public {\n        require(supervisor == msg.sender, 'Not Supervisor');\n        assetMap[assetsCount] = Asset(assetsCount, price);\n        mint(to, assetsCount);\n        assetsCount = assetsCount+1;\n    }\n\n    function clearApproval(uint256 assetId, address approved) public {\n        if(assetApprovals[assetId] == approved) {\n            assetApprovals[assetId] = address(0);\n        }\n    }\n\n    function build(uint256 assetId, uint256 value) public payable {\n         require(isApprovedOrOwner(msg.sender, assetId), \"Not an approved Owner\");\n         Asset memory oldAsset = assetMap[assetId];\n         assetMap[assetId] = Asset(oldAsset.assetId, oldAsset.price+value);\n    }\n\n    function appreciate(uint256 assetId, uint256 value) public {\n        require(msg.sender == supervisor, \"Not a manager\");\n        Asset memory oldAsset = assetMap[assetId];\n        assetMap[assetId] = Asset(oldAsset.assetId, oldAsset.price+value);\n    }\n\n    function depreciate(uint256 assetId,uint256 value) public{\n        require(msg.sender==supervisor,\"Not a Manager\");\n        Asset memory oldAsset = assetMap[assetId];\n        assetMap[assetId] = Asset(oldAsset.assetId, oldAsset.price - value);\n    }\n\n    function getAssetsSize() public view returns(uint){\n        return assetsCount;\n    }\n\n    // Functions used internally by another functions //\n\n    function mint(address to, uint256 assetId) internal {\n        require(to != address(0), \"ZeroAddressMiniting\");\n        require(!exists(assetId), \"Already Minted\");\n        assetOwner[assetId] = to;\n        ownedAssetsCount[to]++;\n        emit Transfer(address(0), to, assetId);\n    }\n\n    function exists(uint256 assetId) internal view returns (bool) {\n        return assetOwner[assetId] != address(0);\n    }\n\n     function isApprovedOrOwner(address spender, uint256 assetId) internal view returns (bool) {\n        require(exists(assetId), \"ERC721: operator query for nonexistent token\");\n        address owner = ownerOf(assetId);\n        return (spender == owner || getApproved(assetId) == spender);\n    }\n\n    // Unused ERC721 functions //\n    event ApprovalForAll(address indexed owner, address indexed operator, bool approved);\n\n    bytes4 private constant _ERC721_RECEIVED = 0x150b7a02;\n\n    mapping (address => mapping (address => bool)) private _operatorApprovals;\n\n    function setApprovalForAll(address to, bool approved) public {\n        require(to != msg.sender, \"ERC721: approve to caller\");\n        _operatorApprovals[msg.sender][to] = approved;\n        emit ApprovalForAll(msg.sender, to, approved);\n    }\n}",
  "sourcePath": "/Users/robertocarlos/Desktop/research/house-contract/logic/contracts/RealEstate.sol",
  "compiler": {
    "name": "solc",
    "version": "0.5.17+commit.d19bba13.Emscripten.clang"
  },
  "schemaVersion": "3.0.20",
  "updatedAt": "2020-06-07T19:57:05.129Z",
  "networkType": "ethereum",
  "devdoc": {
    "author": "Roberto Carlos",
    "methods": {
      "balanceOf(address)": {
        "details": "Gets the balance of the specified address.",
        "params": {
          "owner": "address to query the balance of"
        },
        "return": "uint256 representing the amount owned by the passed address"
      },
      "isApprovedForAll(address,address)": {
        "details": "Tells whether an operator is approved by a given owner.",
        "params": {
          "operator": "operator address which you want to query the approval of",
          "owner": "owner address which you want to query the approval of"
        },
        "return": "bool whether the given operator is approved by the given owner"
      },
      "safeTransferFrom(address,address,uint256)": {
        "details": "Safely transfers the ownership of a given token ID to another address If the target address is a contract, it must implement `onERC721Received`, which is called upon a safe transfer, and return the magic value `bytes4(keccak256(\"onERC721Received(address,address,uint256,bytes)\"))`; otherwise, the transfer is reverted. Requires the msg.sender to be the owner, approved, or operator",
        "params": {
          "from": "current owner of the token",
          "to": "address to receive the ownership of the given token ID",
          "tokenId": "uint256 ID of the token to be transferred"
        }
      },
      "safeTransferFrom(address,address,uint256,bytes)": {
        "details": "Safely transfers the ownership of a given token ID to another address If the target address is a contract, it must implement `onERC721Received`, which is called upon a safe transfer, and return the magic value `bytes4(keccak256(\"onERC721Received(address,address,uint256,bytes)\"))`; otherwise, the transfer is reverted. Requires the msg.sender to be the owner, approved, or operator",
        "params": {
          "_data": "bytes data to send along with a safe transfer check",
          "from": "current owner of the token",
          "to": "address to receive the ownership of the given token ID",
          "tokenId": "uint256 ID of the token to be transferred"
        }
      },
      "supportsInterface(bytes4)": {
        "details": "See `IERC165.supportsInterface`.     * Time complexity O(1), guaranteed to always use less than 30 000 gas."
      },
      "transferFrom(address,address,uint256)": {
        "details": "Transfers the ownership of a given token ID to another address. Usage of this method is discouraged, use `safeTransferFrom` whenever possible. Requires the msg.sender to be the owner, approved, or operator.",
        "params": {
          "from": "current owner of the token",
          "to": "address to receive the ownership of the given token ID",
          "tokenId": "uint256 ID of the token to be transferred"
        }
      }
    },
    "title": "Real Estate Exchange"
  },
  "userdoc": {
    "methods": {
      "balanceOf()": {
        "notice": "Functions inherit from ERC721 ///"
      }
    },
    "notice": "This contract represents a property exchange market"
  }
}