{
  "contractName": "RealEstate",
  "abi": [
    {
      "inputs": [],
      "payable": false,
      "stateMutability": "nonpayable",
      "type": "constructor"
    },
    {
      "anonymous": false,
      "inputs": [
        {
          "indexed": true,
          "internalType": "address",
          "name": "owner",
          "type": "address"
        },
        {
          "indexed": true,
          "internalType": "address",
          "name": "approved",
          "type": "address"
        },
        {
          "indexed": true,
          "internalType": "uint256",
          "name": "tokenId",
          "type": "uint256"
        }
      ],
      "name": "Approval",
      "type": "event"
    },
    {
      "anonymous": false,
      "inputs": [
        {
          "indexed": true,
          "internalType": "address",
          "name": "owner",
          "type": "address"
        },
        {
          "indexed": true,
          "internalType": "address",
          "name": "operator",
          "type": "address"
        },
        {
          "indexed": false,
          "internalType": "bool",
          "name": "approved",
          "type": "bool"
        }
      ],
      "name": "ApprovalForAll",
      "type": "event"
    },
    {
      "anonymous": false,
      "inputs": [
        {
          "indexed": true,
          "internalType": "address[]",
          "name": "owners",
          "type": "address[]"
        },
        {
          "indexed": true,
          "internalType": "uint256",
          "name": "tokenId",
          "type": "uint256"
        }
      ],
      "name": "SharedApproval",
      "type": "event"
    },
    {
      "anonymous": false,
      "inputs": [
        {
          "indexed": true,
          "internalType": "address",
          "name": "from",
          "type": "address"
        },
        {
          "indexed": true,
          "internalType": "address[]",
          "name": "owners",
          "type": "address[]"
        },
        {
          "indexed": true,
          "internalType": "uint256",
          "name": "tokenId",
          "type": "uint256"
        }
      ],
      "name": "Transfer",
      "type": "event"
    },
    {
      "anonymous": false,
      "inputs": [
        {
          "indexed": true,
          "internalType": "address",
          "name": "from",
          "type": "address"
        },
        {
          "indexed": true,
          "internalType": "address",
          "name": "to",
          "type": "address"
        },
        {
          "indexed": true,
          "internalType": "uint256",
          "name": "tokenId",
          "type": "uint256"
        }
      ],
      "name": "Transfer",
      "type": "event"
    },
    {
      "constant": false,
      "inputs": [
        {
          "internalType": "address",
          "name": "to",
          "type": "address"
        },
        {
          "internalType": "uint256",
          "name": "tokenId",
          "type": "uint256"
        }
      ],
      "name": "approve",
      "outputs": [],
      "payable": false,
      "stateMutability": "nonpayable",
      "type": "function"
    },
    {
      "constant": true,
      "inputs": [
        {
          "internalType": "uint256",
          "name": "",
          "type": "uint256"
        }
      ],
      "name": "assetMap",
      "outputs": [
        {
          "internalType": "uint256",
          "name": "assetId",
          "type": "uint256"
        },
        {
          "internalType": "uint256",
          "name": "price",
          "type": "uint256"
        },
        {
          "internalType": "string",
          "name": "cid",
          "type": "string"
        }
      ],
      "payable": false,
      "stateMutability": "view",
      "type": "function"
    },
    {
      "constant": true,
      "inputs": [],
      "name": "assetsCount",
      "outputs": [
        {
          "internalType": "uint256",
          "name": "",
          "type": "uint256"
        }
      ],
      "payable": false,
      "stateMutability": "view",
      "type": "function"
    },
    {
      "constant": true,
      "inputs": [
        {
          "internalType": "uint256",
          "name": "",
          "type": "uint256"
        }
      ],
      "name": "countApproveAddresses",
      "outputs": [
        {
          "internalType": "uint256",
          "name": "",
          "type": "uint256"
        }
      ],
      "payable": false,
      "stateMutability": "view",
      "type": "function"
    },
    {
      "constant": true,
      "inputs": [
        {
          "internalType": "uint256",
          "name": "tokenId",
          "type": "uint256"
        }
      ],
      "name": "getApproved",
      "outputs": [
        {
          "internalType": "address",
          "name": "",
          "type": "address"
        }
      ],
      "payable": false,
      "stateMutability": "view",
      "type": "function"
    },
    {
      "constant": true,
      "inputs": [
        {
          "internalType": "uint256",
          "name": "",
          "type": "uint256"
        },
        {
          "internalType": "uint256",
          "name": "",
          "type": "uint256"
        }
      ],
      "name": "holdSharedApproval",
      "outputs": [
        {
          "internalType": "address",
          "name": "approval_address",
          "type": "address"
        },
        {
          "internalType": "uint256",
          "name": "percetange",
          "type": "uint256"
        }
      ],
      "payable": false,
      "stateMutability": "view",
      "type": "function"
    },
    {
      "constant": true,
      "inputs": [
        {
          "internalType": "address",
          "name": "owner",
          "type": "address"
        },
        {
          "internalType": "address",
          "name": "operator",
          "type": "address"
        }
      ],
      "name": "isApprovedForAll",
      "outputs": [
        {
          "internalType": "bool",
          "name": "",
          "type": "bool"
        }
      ],
      "payable": false,
      "stateMutability": "view",
      "type": "function"
    },
    {
      "constant": true,
      "inputs": [
        {
          "internalType": "uint256",
          "name": "tokenId",
          "type": "uint256"
        }
      ],
      "name": "ownerOf",
      "outputs": [
        {
          "internalType": "address",
          "name": "",
          "type": "address"
        }
      ],
      "payable": false,
      "stateMutability": "view",
      "type": "function"
    },
    {
      "constant": false,
      "inputs": [
        {
          "internalType": "address",
          "name": "from",
          "type": "address"
        },
        {
          "internalType": "address",
          "name": "to",
          "type": "address"
        },
        {
          "internalType": "uint256",
          "name": "tokenId",
          "type": "uint256"
        }
      ],
      "name": "safeTransferFrom",
      "outputs": [],
      "payable": false,
      "stateMutability": "nonpayable",
      "type": "function"
    },
    {
      "constant": false,
      "inputs": [
        {
          "internalType": "address",
          "name": "from",
          "type": "address"
        },
        {
          "internalType": "address",
          "name": "to",
          "type": "address"
        },
        {
          "internalType": "uint256",
          "name": "tokenId",
          "type": "uint256"
        },
        {
          "internalType": "bytes",
          "name": "_data",
          "type": "bytes"
        }
      ],
      "name": "safeTransferFrom",
      "outputs": [],
      "payable": false,
      "stateMutability": "nonpayable",
      "type": "function"
    },
    {
      "constant": false,
      "inputs": [
        {
          "internalType": "address",
          "name": "to",
          "type": "address"
        },
        {
          "internalType": "bool",
          "name": "approved",
          "type": "bool"
        }
      ],
      "name": "setApprovalForAll",
      "outputs": [],
      "payable": false,
      "stateMutability": "nonpayable",
      "type": "function"
    },
    {
      "constant": true,
      "inputs": [],
      "name": "supervisor",
      "outputs": [
        {
          "internalType": "address",
          "name": "",
          "type": "address"
        }
      ],
      "payable": false,
      "stateMutability": "view",
      "type": "function"
    },
    {
      "constant": true,
      "inputs": [
        {
          "internalType": "bytes4",
          "name": "interfaceId",
          "type": "bytes4"
        }
      ],
      "name": "supportsInterface",
      "outputs": [
        {
          "internalType": "bool",
          "name": "",
          "type": "bool"
        }
      ],
      "payable": false,
      "stateMutability": "view",
      "type": "function"
    },
    {
      "constant": false,
      "inputs": [
        {
          "internalType": "address",
          "name": "from",
          "type": "address"
        },
        {
          "internalType": "address",
          "name": "to",
          "type": "address"
        },
        {
          "internalType": "uint256",
          "name": "tokenId",
          "type": "uint256"
        }
      ],
      "name": "transferFrom",
      "outputs": [],
      "payable": false,
      "stateMutability": "nonpayable",
      "type": "function"
    },
    {
      "constant": true,
      "inputs": [
        {
          "internalType": "address",
          "name": "owner",
          "type": "address"
        }
      ],
      "name": "balanceOf",
      "outputs": [
        {
          "internalType": "uint256",
          "name": "",
          "type": "uint256"
        }
      ],
      "payable": false,
      "stateMutability": "view",
      "type": "function"
    },
    {
      "constant": true,
      "inputs": [],
      "name": "balanceOf",
      "outputs": [
        {
          "internalType": "uint256",
          "name": "",
          "type": "uint256"
        }
      ],
      "payable": false,
      "stateMutability": "view",
      "type": "function"
    },
    {
      "constant": true,
      "inputs": [
        {
          "internalType": "uint256",
          "name": "assetId",
          "type": "uint256"
        }
      ],
      "name": "ownersOf",
      "outputs": [
        {
          "internalType": "address[]",
          "name": "",
          "type": "address[]"
        }
      ],
      "payable": false,
      "stateMutability": "view",
      "type": "function"
    },
    {
      "constant": false,
      "inputs": [
        {
          "internalType": "address[]",
          "name": "addresses",
          "type": "address[]"
        },
        {
          "internalType": "uint8[]",
          "name": "percetange",
          "type": "uint8[]"
        },
        {
          "internalType": "uint256",
          "name": "assetId",
          "type": "uint256"
        }
      ],
      "name": "setSharedApproval",
      "outputs": [],
      "payable": false,
      "stateMutability": "nonpayable",
      "type": "function"
    },
    {
      "constant": true,
      "inputs": [
        {
          "internalType": "uint256",
          "name": "assetId",
          "type": "uint256"
        }
      ],
      "name": "getAllApproved",
      "outputs": [
        {
          "internalType": "address[]",
          "name": "",
          "type": "address[]"
        }
      ],
      "payable": false,
      "stateMutability": "view",
      "type": "function"
    },
    {
      "constant": true,
      "inputs": [
        {
          "internalType": "uint256",
          "name": "assetId",
          "type": "uint256"
        }
      ],
      "name": "assetValue",
      "outputs": [
        {
          "internalType": "uint256",
          "name": "",
          "type": "uint256"
        }
      ],
      "payable": false,
      "stateMutability": "view",
      "type": "function"
    },
    {
      "constant": true,
      "inputs": [],
      "name": "allAssets",
      "outputs": [
        {
          "components": [
            {
              "internalType": "uint256",
              "name": "assetId",
              "type": "uint256"
            },
            {
              "internalType": "uint256",
              "name": "price",
              "type": "uint256"
            },
            {
              "internalType": "string",
              "name": "cid",
              "type": "string"
            }
          ],
          "internalType": "struct RealEstate.Asset[]",
          "name": "",
          "type": "tuple[]"
        }
      ],
      "payable": false,
      "stateMutability": "view",
      "type": "function"
    },
    {
      "constant": false,
      "inputs": [
        {
          "internalType": "uint256",
          "name": "price",
          "type": "uint256"
        },
        {
          "internalType": "address[]",
          "name": "owners",
          "type": "address[]"
        },
        {
          "internalType": "string",
          "name": "_cid",
          "type": "string"
        }
      ],
      "name": "addAsset",
      "outputs": [],
      "payable": false,
      "stateMutability": "nonpayable",
      "type": "function"
    },
    {
      "constant": false,
      "inputs": [
        {
          "internalType": "uint256",
          "name": "assetId",
          "type": "uint256"
        },
        {
          "internalType": "uint256",
          "name": "value",
          "type": "uint256"
        }
      ],
      "name": "build",
      "outputs": [],
      "payable": true,
      "stateMutability": "payable",
      "type": "function"
    },
    {
      "constant": false,
      "inputs": [
        {
          "internalType": "uint256",
          "name": "assetId",
          "type": "uint256"
        },
        {
          "internalType": "uint256",
          "name": "value",
          "type": "uint256"
        }
      ],
      "name": "appreciate",
      "outputs": [],
      "payable": false,
      "stateMutability": "nonpayable",
      "type": "function"
    },
    {
      "constant": false,
      "inputs": [
        {
          "internalType": "uint256",
          "name": "assetId",
          "type": "uint256"
        },
        {
          "internalType": "uint256",
          "name": "value",
          "type": "uint256"
        }
      ],
      "name": "depreciate",
      "outputs": [],
      "payable": false,
      "stateMutability": "nonpayable",
      "type": "function"
    },
    {
      "constant": true,
      "inputs": [],
      "name": "getAssetsSize",
      "outputs": [
        {
          "internalType": "uint256",
          "name": "",
          "type": "uint256"
        }
      ],
      "payable": false,
      "stateMutability": "view",
      "type": "function"
    }
  ],
  "bytecode": "0x60806040523480156200001157600080fd5b506200002a6301ffc9a760e01b6200008960201b60201c565b620000426380ac58cd60e01b6200008960201b60201c565b33600760006101000a81548173ffffffffffffffffffffffffffffffffffffffff021916908373ffffffffffffffffffffffffffffffffffffffff160217905550620001d6565b63ffffffff60e01b817bffffffffffffffffffffffffffffffffffffffffffffffffffffffff19161415620000f5576040517f08c379a0000000000000000000000000000000000000000000000000000000008152600401620000ec90620001a3565b60405180910390fd5b6001600080837bffffffffffffffffffffffffffffffffffffffffffffffffffffffff19167bffffffffffffffffffffffffffffffffffffffffffffffffffffffff1916815260200190815260200160002060006101000a81548160ff02191690831515021790555050565b600062000170601c83620001c5565b91507f4552433136353a20696e76616c696420696e74657266616365206964000000006000830152602082019050919050565b60006020820190508181036000830152620001be8162000161565b9050919050565b600082825260208201905092915050565b613de780620001e66000396000f3fe6080604052600436106101805760003560e01c806357e937c5116100d1578063a22cb4651161008a578063cd9df19011610064578063cd9df190146105a9578063dc42aa75146105d4578063e985e9c514610611578063fff345001461064e57610180565b8063a22cb4651461051a578063a584ab2914610543578063b88d4fde1461058057610180565b806357e937c5146103e45780636352211e1461042157806370a082311461045e578063722713f71461049b57806376d708d7146104c65780639f980f91146104f157610180565b8063271acaf31161013e57806336448b041161011857806336448b041461033c57806342842e0e1461036757806354c41a0c1461039057806356e4b68b146103b957610180565b8063271acaf3146102b95780632a1f9ace146102d55780632b34af511461031357610180565b8062589f601461018557806301ffc9a7146101ae578063081812fc146101eb578063095ea7b314610228578063129f90081461025157806323b872dd14610290575b600080fd5b34801561019157600080fd5b506101ac60048036036101a79190810190612abd565b61068b565b005b3480156101ba57600080fd5b506101d560048036036101d09190810190612b3c565b6108cd565b6040516101e29190613758565b60405180910390f35b3480156101f757600080fd5b50610212600480360361020d9190810190612b8e565b610934565b60405161021f9190613684565b60405180910390f35b34801561023457600080fd5b5061024f600480360361024a9190810190612a81565b6109b9565b005b34801561025d57600080fd5b5061027860048036036102739190810190612b8e565b610b66565b60405161028793929190613a4e565b60405180910390f35b34801561029c57600080fd5b506102b760048036036102b2919081019061297b565b610c28565b005b6102d360048036036102ce9190810190612c36565b610c81565b005b3480156102e157600080fd5b506102fc60048036036102f79190810190612c36565b610e1d565b60405161030a9291906136eb565b60405180910390f35b34801561031f57600080fd5b5061033a60048036036103359190810190612c36565b610e6e565b005b34801561034857600080fd5b50610351611051565b60405161035e9190613a33565b60405180910390f35b34801561037357600080fd5b5061038e6004803603610389919081019061297b565b61105b565b005b34801561039c57600080fd5b506103b760048036036103b29190810190612bb7565b61107b565b005b3480156103c557600080fd5b506103ce61118e565b6040516103db9190613684565b60405180910390f35b3480156103f057600080fd5b5061040b60048036036104069190810190612b8e565b6111b4565b6040516104189190613a33565b60405180910390f35b34801561042d57600080fd5b5061044860048036036104439190810190612b8e565b6111d4565b6040516104559190613684565b60405180910390f35b34801561046a57600080fd5b5061048560048036036104809190810190612916565b611286565b6040516104929190613a33565b60405180910390f35b3480156104a757600080fd5b506104b0611345565b6040516104bd9190613a33565b60405180910390f35b3480156104d257600080fd5b506104db6113fb565b6040516104e89190613736565b60405180910390f35b3480156104fd57600080fd5b5061051860048036036105139190810190612c36565b61154d565b005b34801561052657600080fd5b50610541600480360361053c9190810190612a45565b611730565b005b34801561054f57600080fd5b5061056a60048036036105659190810190612b8e565b61189c565b6040516105779190613714565b60405180910390f35b34801561058c57600080fd5b506105a760048036036105a291908101906129ca565b6119e2565b005b3480156105b557600080fd5b506105be611a3e565b6040516105cb9190613a33565b60405180910390f35b3480156105e057600080fd5b506105fb60048036036105f69190810190612b8e565b611a44565b6040516106089190613714565b60405180910390f35b34801561061d57600080fd5b506106386004803603610633919081019061293f565b611b56565b6040516106459190613758565b60405180910390f35b34801561065a57600080fd5b5061067560048036036106709190810190612b8e565b611bea565b6040516106829190613a33565b60405180910390f35b60606106968261189c565b905060008090505b8451811015610749578181815181106106b357fe5b602002602001015173ffffffffffffffffffffffffffffffffffffffff168582815181106106dd57fe5b602002602001015173ffffffffffffffffffffffffffffffffffffffff16141561073c576040517f08c379a000000000000000000000000000000000000000000000000000000000815260040161073390613933565b60405180910390fd5b808060010191505061069e565b5060008090505b845181101561088357610761612506565b604051806040016040528087848151811061077857fe5b602002602001015173ffffffffffffffffffffffffffffffffffffffff168152602001606460066000888152602001908152602001600020600101548886815181106107c057fe5b602002602001015160ff1602816107d357fe5b04815250905080600b6000868152602001908152602001600020600084815260200190815260200160002060008201518160000160006101000a81548173ffffffffffffffffffffffffffffffffffffffff021916908373ffffffffffffffffffffffffffffffffffffffff16021790555060208201518160010155905050600a600085815260200190815260200160002060008154809291906001019190505550508080600101915050610750565b508181604051610893919061366d565b60405180910390207fba12a6536ffd1dfcd58848b94c97b4de9ae49020f4b567679e491058fa9032af60405160405180910390a350505050565b6000806000837bffffffffffffffffffffffffffffffffffffffffffffffffffffffff19167bffffffffffffffffffffffffffffffffffffffffffffffffffffffff1916815260200190815260200160002060009054906101000a900460ff169050919050565b600061093f82611c02565b61097e576040517f08c379a000000000000000000000000000000000000000000000000000000000815260040161097590613953565b60405180910390fd5b6002600083815260200190815260200160002060009054906101000a900473ffffffffffffffffffffffffffffffffffffffff169050919050565b60006109c4826111d4565b90508073ffffffffffffffffffffffffffffffffffffffff168373ffffffffffffffffffffffffffffffffffffffff161415610a35576040517f08c379a0000000000000000000000000000000000000000000000000000000008152600401610a2c906139b3565b60405180910390fd5b8073ffffffffffffffffffffffffffffffffffffffff163373ffffffffffffffffffffffffffffffffffffffff161480610a755750610a748133611b56565b5b610ab4576040517f08c379a0000000000000000000000000000000000000000000000000000000008152600401610aab90613893565b60405180910390fd5b826002600084815260200190815260200160002060006101000a81548173ffffffffffffffffffffffffffffffffffffffff021916908373ffffffffffffffffffffffffffffffffffffffff160217905550818373ffffffffffffffffffffffffffffffffffffffff168273ffffffffffffffffffffffffffffffffffffffff167f8c5be1e5ebec7d5bd14f71427d1e84f3dd0314c0f7b2291e5b200ac8c7c3b92560405160405180910390a4505050565b6006602052806000526040600020600091509050806000015490806001015490806002018054600181600116156101000203166002900480601f016020809104026020016040519081016040528092919081815260200182805460018160011615610100020316600290048015610c1e5780601f10610bf357610100808354040283529160200191610c1e565b820191906000526020600020905b815481529060010190602001808311610c0157829003601f168201915b5050505050905083565b610c323382611c74565b610c71576040517f08c379a0000000000000000000000000000000000000000000000000000000008152600401610c68906139d3565b60405180910390fd5b610c7c838383611d52565b505050565b610c8b3383611f81565b610cca576040517f08c379a0000000000000000000000000000000000000000000000000000000008152600401610cc1906137d3565b60405180910390fd5b610cd2612536565b600660008481526020019081526020016000206040518060600160405290816000820154815260200160018201548152602001600282018054600181600116156101000203166002900480601f016020809104026020016040519081016040528092919081815260200182805460018160011615610100020316600290048015610d9d5780601f10610d7257610100808354040283529160200191610d9d565b820191906000526020600020905b815481529060010190602001808311610d8057829003601f168201915b505050505081525050905060405180606001604052808260000151815260200183836020015101815260200182604001518152506006600085815260200190815260200160002060008201518160000155602082015181600101556040820151816002019080519060200190610e14929190612557565b50905050505050565b600b602052816000526040600020602052806000526040600020600091509150508060000160009054906101000a900473ffffffffffffffffffffffffffffffffffffffff16908060010154905082565b600760009054906101000a900473ffffffffffffffffffffffffffffffffffffffff1673ffffffffffffffffffffffffffffffffffffffff163373ffffffffffffffffffffffffffffffffffffffff1614610efe576040517f08c379a0000000000000000000000000000000000000000000000000000000008152600401610ef590613913565b60405180910390fd5b610f06612536565b600660008481526020019081526020016000206040518060600160405290816000820154815260200160018201548152602001600282018054600181600116156101000203166002900480601f016020809104026020016040519081016040528092919081815260200182805460018160011615610100020316600290048015610fd15780601f10610fa657610100808354040283529160200191610fd1565b820191906000526020600020905b815481529060010190602001808311610fb457829003601f168201915b505050505081525050905060405180606001604052808260000151815260200183836020015101815260200182604001518152506006600085815260200190815260200160002060008201518160000155602082015181600101556040820151816002019080519060200190611048929190612557565b50905050505050565b6000600554905090565b611076838383604051806020016040528060008152506119e2565b505050565b3373ffffffffffffffffffffffffffffffffffffffff16600760009054906101000a900473ffffffffffffffffffffffffffffffffffffffff1673ffffffffffffffffffffffffffffffffffffffff161461110b576040517f08c379a0000000000000000000000000000000000000000000000000000000008152600401611102906137f3565b60405180910390fd5b60405180606001604052806005548152602001848152602001828152506006600060055481526020019081526020016000206000820151816000015560208201518160010155604082015181600201908051906020019061116d929190612557565b5090505061117d82600554611fd5565b600160055401600581905550505050565b600760009054906101000a900473ffffffffffffffffffffffffffffffffffffffff1681565b600060066000838152602001908152602001600020600101549050919050565b6000806001600084815260200190815260200160002060009054906101000a900473ffffffffffffffffffffffffffffffffffffffff169050600073ffffffffffffffffffffffffffffffffffffffff168173ffffffffffffffffffffffffffffffffffffffff16141561127d576040517f08c379a0000000000000000000000000000000000000000000000000000000008152600401611274906138d3565b60405180910390fd5b80915050919050565b60008073ffffffffffffffffffffffffffffffffffffffff168273ffffffffffffffffffffffffffffffffffffffff1614156112f7576040517f08c379a00000000000000000000000000000000000000000000000000000000081526004016112ee906138b3565b60405180910390fd5b61133e600360008473ffffffffffffffffffffffffffffffffffffffff1673ffffffffffffffffffffffffffffffffffffffff1681526020019081526020016000206121c4565b9050919050565b60008073ffffffffffffffffffffffffffffffffffffffff163373ffffffffffffffffffffffffffffffffffffffff1614156113b6576040517f08c379a00000000000000000000000000000000000000000000000000000000081526004016113ad90613973565b60405180910390fd5b600960003373ffffffffffffffffffffffffffffffffffffffff1673ffffffffffffffffffffffffffffffffffffffff16815260200190815260200160002054905090565b60608060055460405190808252806020026020018201604052801561143a57816020015b6114276125d7565b81526020019060019003908161141f5790505b50905060008090505b60055481101561154557600660008281526020019081526020016000206040518060600160405290816000820154815260200160018201548152602001600282018054600181600116156101000203166002900480601f0160208091040260200160405190810160405280929190818152602001828054600181600116156101000203166002900480156115185780601f106114ed57610100808354040283529160200191611518565b820191906000526020600020905b8154815290600101906020018083116114fb57829003601f168201915b50505050508152505082828151811061152d57fe5b60200260200101819052508080600101915050611443565b508091505090565b600760009054906101000a900473ffffffffffffffffffffffffffffffffffffffff1673ffffffffffffffffffffffffffffffffffffffff163373ffffffffffffffffffffffffffffffffffffffff16146115dd576040517f08c379a00000000000000000000000000000000000000000000000000000000081526004016115d490613793565b60405180910390fd5b6115e5612536565b600660008481526020019081526020016000206040518060600160405290816000820154815260200160018201548152602001600282018054600181600116156101000203166002900480601f0160208091040260200160405190810160405280929190818152602001828054600181600116156101000203166002900480156116b05780601f10611685576101008083540402835291602001916116b0565b820191906000526020600020905b81548152906001019060200180831161169357829003601f168201915b505050505081525050905060405180606001604052808260000151815260200183836020015103815260200182604001518152506006600085815260200190815260200160002060008201518160000155602082015181600101556040820151816002019080519060200190611727929190612557565b50905050505050565b3373ffffffffffffffffffffffffffffffffffffffff168273ffffffffffffffffffffffffffffffffffffffff16141561179f576040517f08c379a000000000000000000000000000000000000000000000000000000000815260040161179690613833565b60405180910390fd5b80600460003373ffffffffffffffffffffffffffffffffffffffff1673ffffffffffffffffffffffffffffffffffffffff16815260200190815260200160002060008473ffffffffffffffffffffffffffffffffffffffff1673ffffffffffffffffffffffffffffffffffffffff16815260200190815260200160002060006101000a81548160ff0219169083151502179055508173ffffffffffffffffffffffffffffffffffffffff163373ffffffffffffffffffffffffffffffffffffffff167f17307eab39ab6107e8899845ad3d59bd9653f200f220920489ca2b5937696c31836040516118909190613758565b60405180910390a35050565b6060806008600084815260200190815260200160002080548060200260200160405190810160405280929190818152602001828054801561193257602002820191906000526020600020905b8160009054906101000a900473ffffffffffffffffffffffffffffffffffffffff1673ffffffffffffffffffffffffffffffffffffffff16815260200190600101908083116118e8575b5050505050905060008090505b81518110156119d857600073ffffffffffffffffffffffffffffffffffffffff1682828151811061196c57fe5b602002602001015173ffffffffffffffffffffffffffffffffffffffff1614156119cb576040517f08c379a00000000000000000000000000000000000000000000000000000000081526004016119c290613773565b60405180910390fd5b808060010191505061193f565b5080915050919050565b6119ed848484610c28565b6119f9848484846121d2565b611a38576040517f08c379a0000000000000000000000000000000000000000000000000000000008152600401611a2f906137b3565b60405180910390fd5b50505050565b60055481565b6060611a4f826122e9565b611a8e576040517f08c379a0000000000000000000000000000000000000000000000000000000008152600401611a85906139f3565b60405180910390fd5b606060008090505b600a600085815260200190815260200160002054811015611b4c57600b6000858152602001908152602001600020600082815260200190815260200160002060000160009054906101000a900473ffffffffffffffffffffffffffffffffffffffff16828281518110611b0557fe5b602002602001019073ffffffffffffffffffffffffffffffffffffffff16908173ffffffffffffffffffffffffffffffffffffffff16815250508080600101915050611a96565b5080915050919050565b6000600460008473ffffffffffffffffffffffffffffffffffffffff1673ffffffffffffffffffffffffffffffffffffffff16815260200190815260200160002060008373ffffffffffffffffffffffffffffffffffffffff1673ffffffffffffffffffffffffffffffffffffffff16815260200190815260200160002060009054906101000a900460ff16905092915050565b600a6020528060005260406000206000915090505481565b6000806001600084815260200190815260200160002060009054906101000a900473ffffffffffffffffffffffffffffffffffffffff169050600073ffffffffffffffffffffffffffffffffffffffff168173ffffffffffffffffffffffffffffffffffffffff161415915050919050565b6000611c7f82611c02565b611cbe576040517f08c379a0000000000000000000000000000000000000000000000000000000008152600401611cb590613873565b60405180910390fd5b6000611cc9836111d4565b90508073ffffffffffffffffffffffffffffffffffffffff168473ffffffffffffffffffffffffffffffffffffffff161480611d3857508373ffffffffffffffffffffffffffffffffffffffff16611d2084610934565b73ffffffffffffffffffffffffffffffffffffffff16145b80611d495750611d488185611b56565b5b91505092915050565b8273ffffffffffffffffffffffffffffffffffffffff16611d72826111d4565b73ffffffffffffffffffffffffffffffffffffffff1614611dc8576040517f08c379a0000000000000000000000000000000000000000000000000000000008152600401611dbf90613993565b60405180910390fd5b600073ffffffffffffffffffffffffffffffffffffffff168273ffffffffffffffffffffffffffffffffffffffff161415611e38576040517f08c379a0000000000000000000000000000000000000000000000000000000008152600401611e2f90613813565b60405180910390fd5b611e41816123a6565b611e88600360008573ffffffffffffffffffffffffffffffffffffffff1673ffffffffffffffffffffffffffffffffffffffff168152602001908152602001600020612464565b611ecf600360008473ffffffffffffffffffffffffffffffffffffffff1673ffffffffffffffffffffffffffffffffffffffff168152602001908152602001600020612487565b816001600083815260200190815260200160002060006101000a81548173ffffffffffffffffffffffffffffffffffffffff021916908373ffffffffffffffffffffffffffffffffffffffff160217905550808273ffffffffffffffffffffffffffffffffffffffff168473ffffffffffffffffffffffffffffffffffffffff167fddf252ad1be2c89b69c2b068fc378daa952ba7f163c4a11628f55a4df523b3ef60405160405180910390a4505050565b6000611f8c826122e9565b611fcb576040517f08c379a0000000000000000000000000000000000000000000000000000000008152600401611fc290613873565b60405180910390fd5b6001905092915050565b60008090505b825181101561207457600073ffffffffffffffffffffffffffffffffffffffff1683828151811061200857fe5b602002602001015173ffffffffffffffffffffffffffffffffffffffff161415612067576040517f08c379a000000000000000000000000000000000000000000000000000000000815260040161205e90613a13565b60405180910390fd5b8080600101915050611fdb565b5061207e816122e9565b156120be576040517f08c379a00000000000000000000000000000000000000000000000000000000081526004016120b5906138f3565b60405180910390fd5b816008600083815260200190815260200160002090805190602001906120e59291906125f8565b5060008090505b8251811015612164576009600084838151811061210557fe5b602002602001015173ffffffffffffffffffffffffffffffffffffffff1673ffffffffffffffffffffffffffffffffffffffff1681526020019081526020016000206000815480929190600101919050555080806001019150506120ec565b508082604051612174919061366d565b6040518091039020600073ffffffffffffffffffffffffffffffffffffffff167f88524f1adc455c819c8ff6945e12c73cfdbe4ae7895f5d641aee4010193803a460405160405180910390a45050565b600081600001549050919050565b60006121f38473ffffffffffffffffffffffffffffffffffffffff1661249d565b61220057600190506122e1565b60008473ffffffffffffffffffffffffffffffffffffffff1663150b7a02338887876040518563ffffffff1660e01b8152600401612241949392919061369f565b602060405180830381600087803b15801561225b57600080fd5b505af115801561226f573d6000803e3d6000fd5b505050506040513d601f19601f820116820180604052506122939190810190612b65565b905063150b7a0260e01b7bffffffffffffffffffffffffffffffffffffffffffffffffffffffff1916817bffffffffffffffffffffffffffffffffffffffffffffffffffffffff1916149150505b949350505050565b6000806000905060008090505b600860008581526020019081526020016000208054905081101561239c57600073ffffffffffffffffffffffffffffffffffffffff1660086000868152602001908152602001600020828154811061234a57fe5b9060005260206000200160009054906101000a900473ffffffffffffffffffffffffffffffffffffffff1673ffffffffffffffffffffffffffffffffffffffff161415915080806001019150506122f6565b5080915050919050565b600073ffffffffffffffffffffffffffffffffffffffff166002600083815260200190815260200160002060009054906101000a900473ffffffffffffffffffffffffffffffffffffffff1673ffffffffffffffffffffffffffffffffffffffff16146124615760006002600083815260200190815260200160002060006101000a81548173ffffffffffffffffffffffffffffffffffffffff021916908373ffffffffffffffffffffffffffffffffffffffff1602179055505b50565b61247c600182600001546124b090919063ffffffff16565b816000018190555050565b6001816000016000828254019250508190555050565b600080823b905060008111915050919050565b6000828211156124f5576040517f08c379a00000000000000000000000000000000000000000000000000000000081526004016124ec90613853565b60405180910390fd5b600082840390508091505092915050565b6040518060400160405280600073ffffffffffffffffffffffffffffffffffffffff168152602001600081525090565b60405180606001604052806000815260200160008152602001606081525090565b828054600181600116156101000203166002900490600052602060002090601f016020900481019282601f1061259857805160ff19168380011785556125c6565b828001600101855582156125c6579182015b828111156125c55782518255916020019190600101906125aa565b5b5090506125d39190612682565b5090565b60405180606001604052806000815260200160008152602001606081525090565b828054828255906000526020600020908101928215612671579160200282015b828111156126705782518260006101000a81548173ffffffffffffffffffffffffffffffffffffffff021916908373ffffffffffffffffffffffffffffffffffffffff16021790555091602001919060010190612618565b5b50905061267e91906126a7565b5090565b6126a491905b808211156126a0576000816000905550600101612688565b5090565b90565b6126e791905b808211156126e357600081816101000a81549073ffffffffffffffffffffffffffffffffffffffff0219169055506001016126ad565b5090565b90565b6000813590506126f981613d31565b92915050565b600082601f83011261271057600080fd5b813561272361271e82613ab9565b613a8c565b9150818183526020840193506020810190508385602084028201111561274857600080fd5b60005b83811015612778578161275e88826126ea565b84526020840193506020830192505060018101905061274b565b5050505092915050565b600082601f83011261279357600080fd5b81356127a66127a182613ae1565b613a8c565b915081818352602084019350602081019050838560208402820111156127cb57600080fd5b60005b838110156127fb57816127e18882612901565b8452602084019350602083019250506001810190506127ce565b5050505092915050565b60008135905061281481613d48565b92915050565b60008135905061282981613d5f565b92915050565b60008151905061283e81613d5f565b92915050565b600082601f83011261285557600080fd5b813561286861286382613b09565b613a8c565b9150808252602083016020830185838301111561288457600080fd5b61288f838284613cde565b50505092915050565b600082601f8301126128a957600080fd5b81356128bc6128b782613b35565b613a8c565b915080825260208301602083018583830111156128d857600080fd5b6128e3838284613cde565b50505092915050565b6000813590506128fb81613d76565b92915050565b60008135905061291081613d8d565b92915050565b60006020828403121561292857600080fd5b6000612936848285016126ea565b91505092915050565b6000806040838503121561295257600080fd5b6000612960858286016126ea565b9250506020612971858286016126ea565b9150509250929050565b60008060006060848603121561299057600080fd5b600061299e868287016126ea565b93505060206129af868287016126ea565b92505060406129c0868287016128ec565b9150509250925092565b600080600080608085870312156129e057600080fd5b60006129ee878288016126ea565b94505060206129ff878288016126ea565b9350506040612a10878288016128ec565b925050606085013567ffffffffffffffff811115612a2d57600080fd5b612a3987828801612844565b91505092959194509250565b60008060408385031215612a5857600080fd5b6000612a66858286016126ea565b9250506020612a7785828601612805565b9150509250929050565b60008060408385031215612a9457600080fd5b6000612aa2858286016126ea565b9250506020612ab3858286016128ec565b9150509250929050565b600080600060608486031215612ad257600080fd5b600084013567ffffffffffffffff811115612aec57600080fd5b612af8868287016126ff565b935050602084013567ffffffffffffffff811115612b1557600080fd5b612b2186828701612782565b9250506040612b32868287016128ec565b9150509250925092565b600060208284031215612b4e57600080fd5b6000612b5c8482850161281a565b91505092915050565b600060208284031215612b7757600080fd5b6000612b858482850161282f565b91505092915050565b600060208284031215612ba057600080fd5b6000612bae848285016128ec565b91505092915050565b600080600060608486031215612bcc57600080fd5b6000612bda868287016128ec565b935050602084013567ffffffffffffffff811115612bf757600080fd5b612c03868287016126ff565b925050604084013567ffffffffffffffff811115612c2057600080fd5b612c2c86828701612898565b9150509250925092565b60008060408385031215612c4957600080fd5b6000612c57858286016128ec565b9250506020612c68858286016128ec565b9150509250929050565b6000612c7e8383612cc5565b60208301905092915050565b6000612c968383612ce3565b60208301905092915050565b6000612cae83836135ff565b905092915050565b612cbf81613ca8565b82525050565b612cce81613c27565b82525050565b612cdd81613c27565b82525050565b612cec81613c27565b82525050565b6000612cfd82613b81565b612d078185613bc7565b9350612d1283613b61565b8060005b83811015612d43578151612d2a8882612c72565b9750612d3583613bad565b925050600181019050612d16565b5085935050505092915050565b6000612d5b82613b81565b612d658185613bd8565b9350612d7083613b61565b8060005b83811015612da1578151612d888882612c8a565b9750612d9383613bad565b925050600181019050612d74565b5085935050505092915050565b6000612db982613b8c565b612dc38185613be3565b935083602082028501612dd585613b71565b8060005b85811015612e115784840389528151612df28582612ca2565b9450612dfd83613bba565b925060208a01995050600181019050612dd9565b50829750879550505050505092915050565b612e2c81613c39565b82525050565b6000612e3d82613b97565b612e478185613bf4565b9350612e57818560208601613ced565b612e6081613d20565b840191505092915050565b6000612e7682613ba2565b612e808185613c05565b9350612e90818560208601613ced565b612e9981613d20565b840191505092915050565b6000612eaf82613ba2565b612eb98185613c16565b9350612ec9818560208601613ced565b612ed281613d20565b840191505092915050565b6000612eea601083613c16565b91507f4e6f204173736574206973207265616c000000000000000000000000000000006000830152602082019050919050565b6000612f2a600d83613c16565b91507f4e6f742061204d616e61676572000000000000000000000000000000000000006000830152602082019050919050565b6000612f6a603283613c16565b91507f4552433732313a207472616e7366657220746f206e6f6e20455243373231526560008301527f63656976657220696d706c656d656e74657200000000000000000000000000006020830152604082019050919050565b6000612fd0601583613c16565b91507f4e6f7420616e20617070726f766564204f776e657200000000000000000000006000830152602082019050919050565b6000613010600e83613c16565b91507f4e6f742053757065727669736f720000000000000000000000000000000000006000830152602082019050919050565b6000613050602483613c16565b91507f4552433732313a207472616e7366657220746f20746865207a65726f2061646460008301527f72657373000000000000000000000000000000000000000000000000000000006020830152604082019050919050565b60006130b6601983613c16565b91507f4552433732313a20617070726f766520746f2063616c6c6572000000000000006000830152602082019050919050565b60006130f6601e83613c16565b91507f536166654d6174683a207375627472616374696f6e206f766572666c6f7700006000830152602082019050919050565b6000613136602c83613c16565b91507f4552433732313a206f70657261746f7220717565727920666f72206e6f6e657860008301527f697374656e7420746f6b656e00000000000000000000000000000000000000006020830152604082019050919050565b600061319c603883613c16565b91507f4552433732313a20617070726f76652063616c6c6572206973206e6f74206f7760008301527f6e6572206e6f7220617070726f76656420666f7220616c6c00000000000000006020830152604082019050919050565b6000613202602a83613c16565b91507f4552433732313a2062616c616e636520717565727920666f7220746865207a6560008301527f726f2061646472657373000000000000000000000000000000000000000000006020830152604082019050919050565b6000613268602983613c16565b91507f4552433732313a206f776e657220717565727920666f72206e6f6e657869737460008301527f656e7420746f6b656e00000000000000000000000000000000000000000000006020830152604082019050919050565b60006132ce600e83613c16565b91507f416c7265616479204d696e7465640000000000000000000000000000000000006000830152602082019050919050565b600061330e600d83613c16565b91507f4e6f742061206d616e61676572000000000000000000000000000000000000006000830152602082019050919050565b600061334e600d83613c16565b91507f43757272656e74204f776e6572000000000000000000000000000000000000006000830152602082019050919050565b600061338e602c83613c16565b91507f4552433732313a20617070726f76656420717565727920666f72206e6f6e657860008301527f697374656e7420746f6b656e00000000000000000000000000000000000000006020830152604082019050919050565b60006133f4602283613c16565b91507f42616c616e636520717565727920666f7220746865207a65726f20616464726560008301527f73730000000000000000000000000000000000000000000000000000000000006020830152604082019050919050565b600061345a602983613c16565b91507f4552433732313a207472616e73666572206f6620746f6b656e2074686174206960008301527f73206e6f74206f776e00000000000000000000000000000000000000000000006020830152604082019050919050565b60006134c0602183613c16565b91507f4552433732313a20617070726f76616c20746f2063757272656e74206f776e6560008301527f72000000000000000000000000000000000000000000000000000000000000006020830152604082019050919050565b6000613526603183613c16565b91507f4552433732313a207472616e736665722063616c6c6572206973206e6f74206f60008301527f776e6572206e6f7220617070726f7665640000000000000000000000000000006020830152604082019050919050565b600061358c600f83613c16565b91507f546f6b656e206e6f7420657869737400000000000000000000000000000000006000830152602082019050919050565b60006135cc601483613c16565b91507f5a65726f2041646472657373204d696e74696e670000000000000000000000006000830152602082019050919050565b6000606083016000830151613617600086018261364f565b50602083015161362a602086018261364f565b50604083015184820360408601526136428282612e6b565b9150508091505092915050565b61365881613c91565b82525050565b61366781613c91565b82525050565b60006136798284612d50565b915081905092915050565b60006020820190506136996000830184612cd4565b92915050565b60006080820190506136b46000830187612cb6565b6136c16020830186612cd4565b6136ce604083018561365e565b81810360608301526136e08184612e32565b905095945050505050565b60006040820190506137006000830185612cd4565b61370d602083018461365e565b9392505050565b6000602082019050818103600083015261372e8184612cf2565b905092915050565b600060208201905081810360008301526137508184612dae565b905092915050565b600060208201905061376d6000830184612e23565b92915050565b6000602082019050818103600083015261378c81612edd565b9050919050565b600060208201905081810360008301526137ac81612f1d565b9050919050565b600060208201905081810360008301526137cc81612f5d565b9050919050565b600060208201905081810360008301526137ec81612fc3565b9050919050565b6000602082019050818103600083015261380c81613003565b9050919050565b6000602082019050818103600083015261382c81613043565b9050919050565b6000602082019050818103600083015261384c816130a9565b9050919050565b6000602082019050818103600083015261386c816130e9565b9050919050565b6000602082019050818103600083015261388c81613129565b9050919050565b600060208201905081810360008301526138ac8161318f565b9050919050565b600060208201905081810360008301526138cc816131f5565b9050919050565b600060208201905081810360008301526138ec8161325b565b9050919050565b6000602082019050818103600083015261390c816132c1565b9050919050565b6000602082019050818103600083015261392c81613301565b9050919050565b6000602082019050818103600083015261394c81613341565b9050919050565b6000602082019050818103600083015261396c81613381565b9050919050565b6000602082019050818103600083015261398c816133e7565b9050919050565b600060208201905081810360008301526139ac8161344d565b9050919050565b600060208201905081810360008301526139cc816134b3565b9050919050565b600060208201905081810360008301526139ec81613519565b9050919050565b60006020820190508181036000830152613a0c8161357f565b9050919050565b60006020820190508181036000830152613a2c816135bf565b9050919050565b6000602082019050613a48600083018461365e565b92915050565b6000606082019050613a63600083018661365e565b613a70602083018561365e565b8181036040830152613a828184612ea4565b9050949350505050565b6000604051905081810181811067ffffffffffffffff82111715613aaf57600080fd5b8060405250919050565b600067ffffffffffffffff821115613ad057600080fd5b602082029050602081019050919050565b600067ffffffffffffffff821115613af857600080fd5b602082029050602081019050919050565b600067ffffffffffffffff821115613b2057600080fd5b601f19601f8301169050602081019050919050565b600067ffffffffffffffff821115613b4c57600080fd5b601f19601f8301169050602081019050919050565b6000819050602082019050919050565b6000819050602082019050919050565b600081519050919050565b600081519050919050565b600081519050919050565b600081519050919050565b6000602082019050919050565b6000602082019050919050565b600082825260208201905092915050565b600081905092915050565b600082825260208201905092915050565b600082825260208201905092915050565b600082825260208201905092915050565b600082825260208201905092915050565b6000613c3282613c71565b9050919050565b60008115159050919050565b60007fffffffff0000000000000000000000000000000000000000000000000000000082169050919050565b600073ffffffffffffffffffffffffffffffffffffffff82169050919050565b6000819050919050565b600060ff82169050919050565b6000613cb382613cba565b9050919050565b6000613cc582613ccc565b9050919050565b6000613cd782613c71565b9050919050565b82818337600083830152505050565b60005b83811015613d0b578082015181840152602081019050613cf0565b83811115613d1a576000848401525b50505050565b6000601f19601f8301169050919050565b613d3a81613c27565b8114613d4557600080fd5b50565b613d5181613c39565b8114613d5c57600080fd5b50565b613d6881613c45565b8114613d7357600080fd5b50565b613d7f81613c91565b8114613d8a57600080fd5b50565b613d9681613c9b565b8114613da157600080fd5b5056fea365627a7a7231582033de7e754be0cee276f6bd5920f829eb061bdc22abc05dc0ffe2e4b7ef89a3086c6578706572696d656e74616cf564736f6c63430005110040",
  "source": "pragma solidity ^0.5.8;\npragma experimental ABIEncoderV2;\n\nimport \"./helper_contracts/ERC721.sol\";\n\n///@title Real Estate Exchange\n///@author Roberto Carlos\n///@notice This contract represents a property exchange market\n\ncontract RealEstate is ERC721 {\n    struct Asset {\n        uint256 assetId;\n        uint256 price;\n        string cid;\n    }\n\n    struct ApprovalFormat {\n        address approval_address;\n        uint256 percetange;\n    }\n\n    uint256 public assetsCount;\n    mapping(uint256 => Asset) public assetMap;\n    address public supervisor; // check auto-getter fnc Mohamed\n\n    mapping(uint256 => address[]) private assetOwners; // Now it will hold multiple addrees for further flexibility\n    mapping(address => uint256) private ownedAssetsCount;\n    mapping(uint256 => uint256) public countApproveAddresses;\n    mapping(uint256 => mapping(uint256 => ApprovalFormat)) public holdSharedApproval;\n\n    constructor() public {\n        supervisor = msg.sender;\n    }\n\n\n    //Events\n    event Transfer(address indexed from, address[] indexed owners, uint256 indexed tokenId);\n    event Approval(address indexed owner, address indexed approved, uint256 indexed tokenId);\n    event SharedApproval(address[] indexed owners, uint256 indexed tokenId);\n\n    /// Functions inherit from ERC721 ///\n\n    function balanceOf() public view returns (uint256) {\n        require(msg.sender != address(0), \"Balance query for the zero address\");\n\n        return ownedAssetsCount[msg.sender];\n    }\n\n    function ownersOf(uint256 assetId) public view returns (address[] memory) {\n        address[] memory owners = assetOwners[assetId];\n        for(uint i = 0; i < owners.length; i++) {\n          require(owners[i] != address(0), 'No Asset is real');\n        }\n        return owners;\n    }\n\n    /*function switchOwner(address payable from, uint256 assetId) public payable {\n        require(isApprovedOrOwner(msg.sender, assetId), 'Neither approved or owner');\n        require(ownersOf(assetId) == from, \"NotTheassetOwner\");\n\n        clearApproval(assetId, getApproved(assetId));\n\n        ownedAssetsCount[from]--;\n        ownedAssetsCount[msg.sender]++;\n        assetOwners[assetId] = msg.sender;\n\n        from.transfer(msg.value);\n        emit Transfer(from, msg.sender, assetId);\n    }*/\n\n    function setSharedApproval(address[] memory addresses, uint8[] memory percetange, uint256 assetId) public {\n      address[] memory owners = ownersOf(assetId);\n      for (uint i = 0; i < addresses.length; i++) {\n          require(addresses[i] != owners[i], \"Current Owner\");\n      }\n      for(uint i = 0; i < addresses.length; i++) {\n          ApprovalFormat memory helper = ApprovalFormat(addresses[i], (percetange[i] * assetMap[assetId].price) / 100);\n          holdSharedApproval[assetId][i] = helper;\n          countApproveAddresses[assetId]++;\n      }\n      emit SharedApproval(owners, assetId);\n    }\n\n    function getAllApproved(uint256 assetId) public view returns (address[] memory) {\n        require(exists(assetId), \"Token not exist\");\n        address[] memory allowed;\n        for(uint i = 0; i < countApproveAddresses[assetId]; i++) {\n            allowed[i] = (holdSharedApproval[assetId][i].approval_address);\n        }\n        return allowed;\n    }\n\n    // Additional functions added to the token //\n\n    function assetValue(uint256 assetId) public view returns(uint256) {\n        return assetMap[assetId].price;\n    }\n\n    function allAssets() public view returns(Asset[] memory) {\n        Asset[] memory helper = new Asset[](assetsCount); // -- always be aware of array length --\n        for (uint i = 0; i < assetsCount; i++) {\n            helper[i] = assetMap[i];\n        }\n        return helper;\n    }\n\n    function addAsset(uint256 price, address[] memory owners, string memory _cid) public {\n        require(supervisor == msg.sender, 'Not Supervisor');\n        assetMap[assetsCount] = Asset(assetsCount, price, _cid);\n        mint(owners, assetsCount);\n        assetsCount = assetsCount+1;\n    }\n\n   /* function clearApproval(uint256 assetId, address approved) public {\n        if(holdSharedApproval[assetId] == approved) {\n            holdSharedApproval[assetId] = address(0);\n        }\n    }*/\n\n    function build(uint256 assetId, uint256 value) public payable {\n        require(isApprovedOrOwner(msg.sender, assetId), \"Not an approved Owner\");\n         Asset memory oldAsset = assetMap[assetId];\n         assetMap[assetId] = Asset(oldAsset.assetId, oldAsset.price + value, oldAsset.cid);\n    }\n\n    function appreciate(uint256 assetId, uint256 value) public {\n        require(msg.sender == supervisor, \"Not a manager\");\n        Asset memory oldAsset = assetMap[assetId];\n        assetMap[assetId] = Asset(oldAsset.assetId, oldAsset.price+value, oldAsset.cid);\n    }\n\n    function depreciate(uint256 assetId,uint256 value) public {\n        require(msg.sender==supervisor,\"Not a Manager\");\n        Asset memory oldAsset = assetMap[assetId];\n        assetMap[assetId] = Asset(oldAsset.assetId, oldAsset.price - value, oldAsset.cid);\n    }\n\n    function getAssetsSize() public view returns(uint){\n        return assetsCount;\n    }\n\n    // Functions used internally by another functions //\n\n    function mint(address[] memory owners, uint256 assetId) internal {\n        for(uint i = 0; i < owners.length; i++) {\n          require(owners[i] != address(0), \"Zero Address Minting\");\n        }\n        require(!exists(assetId), \"Already Minted\");\n        assetOwners[assetId] = owners;\n        for (uint i = 0; i < owners.length; i++) {\n            ownedAssetsCount[owners[i]]++;\n        }\n        emit Transfer(address(0), owners, assetId);\n    }\n\n    function exists(uint256 assetId) internal view returns (bool) {\n        bool checker = false;\n        for (uint i = 0; i < assetOwners[assetId].length; i++) {\n            checker = assetOwners[assetId][i] != address(0);\n        }\n        return checker;\n    }\n\n     function isApprovedOrOwner(address spender, uint256 assetId) internal view returns (bool) {\n        require(exists(assetId), \"ERC721: operator query for nonexistent token\");\n        //address[] memory owner = ownersOf(assetId);\n        return true;\n        //return (spender == owner || getApproved(assetId) == spender);\n    }\n}",
  "sourcePath": "/Users/robertocarlos/Desktop/research/house-contract/logic/contracts/RealEstate.sol",
  "compiler": {
    "name": "solc",
    "version": "0.5.17+commit.d19bba13.Emscripten.clang"
  },
  "schemaVersion": "3.0.20",
  "updatedAt": "2020-06-21T15:10:34.760Z",
  "networkType": "ethereum",
  "devdoc": {
    "author": "Roberto Carlos",
    "methods": {
      "approve(address,uint256)": {
        "details": "Approves another address to transfer the given token ID The zero address indicates there is no approved address. There can only be one approved address per token at a given time. Can only be called by the token owner or an approved operator.",
        "params": {
          "to": "address to be approved for the given token ID",
          "tokenId": "uint256 ID of the token to be approved"
        }
      },
      "balanceOf(address)": {
        "details": "Gets the balance of the specified address.",
        "params": {
          "owner": "address to query the balance of"
        },
        "return": "uint256 representing the amount owned by the passed address"
      },
      "getApproved(uint256)": {
        "details": "Gets the approved address for a token ID, or zero if no address set Reverts if the token ID does not exist.",
        "params": {
          "tokenId": "uint256 ID of the token to query the approval of"
        },
        "return": "address currently approved for the given token ID"
      },
      "isApprovedForAll(address,address)": {
        "details": "Tells whether an operator is approved by a given owner.",
        "params": {
          "operator": "operator address which you want to query the approval of",
          "owner": "owner address which you want to query the approval of"
        },
        "return": "bool whether the given operator is approved by the given owner"
      },
      "ownerOf(uint256)": {
        "details": "Gets the owner of the specified token ID.",
        "params": {
          "tokenId": "uint256 ID of the token to query the owner of"
        },
        "return": "address currently marked as the owner of the given token ID"
      },
      "safeTransferFrom(address,address,uint256)": {
        "details": "Safely transfers the ownership of a given token ID to another address If the target address is a contract, it must implement `onERC721Received`, which is called upon a safe transfer, and return the magic value `bytes4(keccak256(\"onERC721Received(address,address,uint256,bytes)\"))`; otherwise, the transfer is reverted. Requires the msg.sender to be the owner, approved, or operator",
        "params": {
          "from": "current owner of the token",
          "to": "address to receive the ownership of the given token ID",
          "tokenId": "uint256 ID of the token to be transferred"
        }
      },
      "safeTransferFrom(address,address,uint256,bytes)": {
        "details": "Safely transfers the ownership of a given token ID to another address If the target address is a contract, it must implement `onERC721Received`, which is called upon a safe transfer, and return the magic value `bytes4(keccak256(\"onERC721Received(address,address,uint256,bytes)\"))`; otherwise, the transfer is reverted. Requires the msg.sender to be the owner, approved, or operator",
        "params": {
          "_data": "bytes data to send along with a safe transfer check",
          "from": "current owner of the token",
          "to": "address to receive the ownership of the given token ID",
          "tokenId": "uint256 ID of the token to be transferred"
        }
      },
      "setApprovalForAll(address,bool)": {
        "details": "Sets or unsets the approval of a given operator An operator is allowed to transfer all tokens of the sender on their behalf.",
        "params": {
          "approved": "representing the status of the approval to be set",
          "to": "operator address to set the approval"
        }
      },
      "supportsInterface(bytes4)": {
        "details": "See `IERC165.supportsInterface`.     * Time complexity O(1), guaranteed to always use less than 30 000 gas."
      },
      "transferFrom(address,address,uint256)": {
        "details": "Transfers the ownership of a given token ID to another address. Usage of this method is discouraged, use `safeTransferFrom` whenever possible. Requires the msg.sender to be the owner, approved, or operator.",
        "params": {
          "from": "current owner of the token",
          "to": "address to receive the ownership of the given token ID",
          "tokenId": "uint256 ID of the token to be transferred"
        }
      }
    },
    "title": "Real Estate Exchange"
  },
  "userdoc": {
    "methods": {
      "balanceOf()": {
        "notice": "Functions inherit from ERC721 ///"
      }
    },
    "notice": "This contract represents a property exchange market"
  }
}