{
  "contractName": "RealEstate",
  "abi": [
    {
      "inputs": [],
      "payable": false,
      "stateMutability": "nonpayable",
      "type": "constructor"
    },
    {
      "anonymous": false,
      "inputs": [
        {
          "indexed": true,
          "internalType": "address",
          "name": "owner",
          "type": "address"
        },
        {
          "indexed": true,
          "internalType": "address",
          "name": "approved",
          "type": "address"
        },
        {
          "indexed": true,
          "internalType": "uint256",
          "name": "tokenId",
          "type": "uint256"
        }
      ],
      "name": "Approval",
      "type": "event"
    },
    {
      "anonymous": false,
      "inputs": [
        {
          "indexed": true,
          "internalType": "address",
          "name": "owner",
          "type": "address"
        },
        {
          "indexed": true,
          "internalType": "address",
          "name": "operator",
          "type": "address"
        },
        {
          "indexed": false,
          "internalType": "bool",
          "name": "approved",
          "type": "bool"
        }
      ],
      "name": "ApprovalForAll",
      "type": "event"
    },
    {
      "anonymous": false,
      "inputs": [
        {
          "indexed": true,
          "internalType": "address",
          "name": "from",
          "type": "address"
        },
        {
          "indexed": true,
          "internalType": "address",
          "name": "to",
          "type": "address"
        },
        {
          "indexed": true,
          "internalType": "uint256",
          "name": "tokenId",
          "type": "uint256"
        },
        {
          "indexed": false,
          "internalType": "uint256",
          "name": "price",
          "type": "uint256"
        }
      ],
      "name": "Transfer",
      "type": "event"
    },
    {
      "anonymous": false,
      "inputs": [
        {
          "indexed": true,
          "internalType": "address",
          "name": "from",
          "type": "address"
        },
        {
          "indexed": true,
          "internalType": "address",
          "name": "to",
          "type": "address"
        },
        {
          "indexed": true,
          "internalType": "uint256",
          "name": "tokenId",
          "type": "uint256"
        }
      ],
      "name": "Transfer",
      "type": "event"
    },
    {
      "constant": true,
      "inputs": [
        {
          "internalType": "uint256",
          "name": "",
          "type": "uint256"
        }
      ],
      "name": "assetApprovals",
      "outputs": [
        {
          "internalType": "address",
          "name": "",
          "type": "address"
        }
      ],
      "payable": false,
      "stateMutability": "view",
      "type": "function"
    },
    {
      "constant": true,
      "inputs": [
        {
          "internalType": "uint256",
          "name": "",
          "type": "uint256"
        }
      ],
      "name": "assetMap",
      "outputs": [
        {
          "internalType": "uint256",
          "name": "assetId",
          "type": "uint256"
        },
        {
          "internalType": "uint256",
          "name": "price",
          "type": "uint256"
        },
        {
          "internalType": "string",
          "name": "cid",
          "type": "string"
        }
      ],
      "payable": false,
      "stateMutability": "view",
      "type": "function"
    },
    {
      "constant": true,
      "inputs": [],
      "name": "assetsCount",
      "outputs": [
        {
          "internalType": "uint256",
          "name": "",
          "type": "uint256"
        }
      ],
      "payable": false,
      "stateMutability": "view",
      "type": "function"
    },
    {
      "constant": true,
      "inputs": [
        {
          "internalType": "address",
          "name": "owner",
          "type": "address"
        },
        {
          "internalType": "address",
          "name": "operator",
          "type": "address"
        }
      ],
      "name": "isApprovedForAll",
      "outputs": [
        {
          "internalType": "bool",
          "name": "",
          "type": "bool"
        }
      ],
      "payable": false,
      "stateMutability": "view",
      "type": "function"
    },
    {
      "constant": false,
      "inputs": [
        {
          "internalType": "address",
          "name": "from",
          "type": "address"
        },
        {
          "internalType": "address",
          "name": "to",
          "type": "address"
        },
        {
          "internalType": "uint256",
          "name": "tokenId",
          "type": "uint256"
        }
      ],
      "name": "safeTransferFrom",
      "outputs": [],
      "payable": false,
      "stateMutability": "nonpayable",
      "type": "function"
    },
    {
      "constant": false,
      "inputs": [
        {
          "internalType": "address",
          "name": "from",
          "type": "address"
        },
        {
          "internalType": "address",
          "name": "to",
          "type": "address"
        },
        {
          "internalType": "uint256",
          "name": "tokenId",
          "type": "uint256"
        },
        {
          "internalType": "bytes",
          "name": "_data",
          "type": "bytes"
        }
      ],
      "name": "safeTransferFrom",
      "outputs": [],
      "payable": false,
      "stateMutability": "nonpayable",
      "type": "function"
    },
    {
      "constant": true,
      "inputs": [],
      "name": "supervisor",
      "outputs": [
        {
          "internalType": "address",
          "name": "",
          "type": "address"
        }
      ],
      "payable": false,
      "stateMutability": "view",
      "type": "function"
    },
    {
      "constant": true,
      "inputs": [
        {
          "internalType": "bytes4",
          "name": "interfaceId",
          "type": "bytes4"
        }
      ],
      "name": "supportsInterface",
      "outputs": [
        {
          "internalType": "bool",
          "name": "",
          "type": "bool"
        }
      ],
      "payable": false,
      "stateMutability": "view",
      "type": "function"
    },
    {
      "constant": true,
      "inputs": [],
      "name": "exposeSupervisor",
      "outputs": [
        {
          "internalType": "address",
          "name": "",
          "type": "address"
        }
      ],
      "payable": false,
      "stateMutability": "view",
      "type": "function"
    },
    {
      "constant": true,
      "inputs": [
        {
          "internalType": "address",
          "name": "owner",
          "type": "address"
        }
      ],
      "name": "balanceOf",
      "outputs": [
        {
          "internalType": "uint256",
          "name": "",
          "type": "uint256"
        }
      ],
      "payable": false,
      "stateMutability": "view",
      "type": "function"
    },
    {
      "constant": true,
      "inputs": [],
      "name": "balanceOf",
      "outputs": [
        {
          "internalType": "uint256",
          "name": "",
          "type": "uint256"
        }
      ],
      "payable": false,
      "stateMutability": "view",
      "type": "function"
    },
    {
      "constant": true,
      "inputs": [
        {
          "internalType": "uint256",
          "name": "assetId",
          "type": "uint256"
        }
      ],
      "name": "ownerOf",
      "outputs": [
        {
          "internalType": "address",
          "name": "",
          "type": "address"
        }
      ],
      "payable": false,
      "stateMutability": "view",
      "type": "function"
    },
    {
      "constant": false,
      "inputs": [
        {
          "internalType": "uint256",
          "name": "assetId",
          "type": "uint256"
        }
      ],
      "name": "transferFrom",
      "outputs": [],
      "payable": true,
      "stateMutability": "payable",
      "type": "function"
    },
    {
      "constant": false,
      "inputs": [
        {
          "internalType": "address",
          "name": "from",
          "type": "address"
        },
        {
          "internalType": "address",
          "name": "to",
          "type": "address"
        },
        {
          "internalType": "uint256",
          "name": "tokenId",
          "type": "uint256"
        }
      ],
      "name": "transferFrom",
      "outputs": [],
      "payable": false,
      "stateMutability": "nonpayable",
      "type": "function"
    },
    {
      "constant": false,
      "inputs": [
        {
          "internalType": "address",
          "name": "to",
          "type": "address"
        },
        {
          "internalType": "uint256",
          "name": "assetId",
          "type": "uint256"
        }
      ],
      "name": "approve",
      "outputs": [],
      "payable": false,
      "stateMutability": "nonpayable",
      "type": "function"
    },
    {
      "constant": true,
      "inputs": [
        {
          "internalType": "uint256",
          "name": "assetId",
          "type": "uint256"
        }
      ],
      "name": "getApproved",
      "outputs": [
        {
          "internalType": "address",
          "name": "",
          "type": "address"
        }
      ],
      "payable": false,
      "stateMutability": "view",
      "type": "function"
    },
    {
      "constant": true,
      "inputs": [
        {
          "internalType": "uint256",
          "name": "assetId",
          "type": "uint256"
        }
      ],
      "name": "assetValue",
      "outputs": [
        {
          "internalType": "uint256",
          "name": "",
          "type": "uint256"
        }
      ],
      "payable": false,
      "stateMutability": "view",
      "type": "function"
    },
    {
      "constant": true,
      "inputs": [],
      "name": "allAssets",
      "outputs": [
        {
          "components": [
            {
              "internalType": "uint256",
              "name": "assetId",
              "type": "uint256"
            },
            {
              "internalType": "uint256",
              "name": "price",
              "type": "uint256"
            },
            {
              "internalType": "string",
              "name": "cid",
              "type": "string"
            }
          ],
          "internalType": "struct RealEstate.Asset[]",
          "name": "",
          "type": "tuple[]"
        }
      ],
      "payable": false,
      "stateMutability": "view",
      "type": "function"
    },
    {
      "constant": false,
      "inputs": [
        {
          "internalType": "uint256",
          "name": "price",
          "type": "uint256"
        },
        {
          "internalType": "address",
          "name": "to",
          "type": "address"
        },
        {
          "internalType": "string",
          "name": "_cid",
          "type": "string"
        }
      ],
      "name": "addAsset",
      "outputs": [],
      "payable": false,
      "stateMutability": "nonpayable",
      "type": "function"
    },
    {
      "constant": false,
      "inputs": [
        {
          "internalType": "uint256",
          "name": "assetId",
          "type": "uint256"
        },
        {
          "internalType": "address",
          "name": "approved",
          "type": "address"
        }
      ],
      "name": "clearApproval",
      "outputs": [],
      "payable": false,
      "stateMutability": "nonpayable",
      "type": "function"
    },
    {
      "constant": false,
      "inputs": [
        {
          "internalType": "uint256",
          "name": "assetId",
          "type": "uint256"
        },
        {
          "internalType": "uint256",
          "name": "value",
          "type": "uint256"
        }
      ],
      "name": "build",
      "outputs": [],
      "payable": true,
      "stateMutability": "payable",
      "type": "function"
    },
    {
      "constant": false,
      "inputs": [
        {
          "internalType": "uint256",
          "name": "assetId",
          "type": "uint256"
        },
        {
          "internalType": "uint256",
          "name": "value",
          "type": "uint256"
        }
      ],
      "name": "appreciate",
      "outputs": [],
      "payable": false,
      "stateMutability": "nonpayable",
      "type": "function"
    },
    {
      "constant": false,
      "inputs": [
        {
          "internalType": "uint256",
          "name": "assetId",
          "type": "uint256"
        },
        {
          "internalType": "uint256",
          "name": "value",
          "type": "uint256"
        }
      ],
      "name": "depreciate",
      "outputs": [],
      "payable": false,
      "stateMutability": "nonpayable",
      "type": "function"
    },
    {
      "constant": true,
      "inputs": [],
      "name": "getAssetsSize",
      "outputs": [
        {
          "internalType": "uint256",
          "name": "",
          "type": "uint256"
        }
      ],
      "payable": false,
      "stateMutability": "view",
      "type": "function"
    },
    {
      "constant": false,
      "inputs": [
        {
          "internalType": "address",
          "name": "to",
          "type": "address"
        },
        {
          "internalType": "bool",
          "name": "approved",
          "type": "bool"
        }
      ],
      "name": "setApprovalForAll",
      "outputs": [],
      "payable": false,
      "stateMutability": "nonpayable",
      "type": "function"
    }
  ],
  "bytecode": "0x60806040523480156200001157600080fd5b506200002a6301ffc9a760e01b6200008960201b60201c565b620000426380ac58cd60e01b6200008960201b60201c565b33600760006101000a81548173ffffffffffffffffffffffffffffffffffffffff021916908373ffffffffffffffffffffffffffffffffffffffff160217905550620001d6565b63ffffffff60e01b817bffffffffffffffffffffffffffffffffffffffffffffffffffffffff19161415620000f5576040517f08c379a0000000000000000000000000000000000000000000000000000000008152600401620000ec90620001a3565b60405180910390fd5b6001600080837bffffffffffffffffffffffffffffffffffffffffffffffffffffffff19167bffffffffffffffffffffffffffffffffffffffffffffffffffffffff1916815260200190815260200160002060006101000a81548160ff02191690831515021790555050565b600062000170601c83620001c5565b91507f4552433136353a20696e76616c696420696e74657266616365206964000000006000830152602082019050919050565b60006020820190508181036000830152620001be8162000161565b9050919050565b600082825260208201905092915050565b61363580620001e66000396000f3fe6080604052600436106101665760003560e01c80636352211e116100d1578063a0110af41161008a578063cd9df19011610064578063cd9df19014610544578063daa5fe2d1461056f578063e985e9c514610598578063fc855960146105d557610166565b8063a0110af4146104c9578063a22cb465146104f2578063b88d4fde1461051b57610166565b80636352211e146103b457806370a08231146103f1578063722713f71461042e57806376d708d71461045957806377a11f7e146104845780639f980f91146104a057610166565b8063271acaf311610123578063271acaf3146102b35780632b34af51146102cf57806336448b04146102f857806342842e0e1461032357806356e4b68b1461034c57806357e937c51461037757610166565b806301ffc9a71461016b57806303385770146101a8578063081812fc146101e5578063095ea7b314610222578063129f90081461024b57806323b872dd1461028a575b600080fd5b34801561017757600080fd5b50610192600480360361018d9190810190612682565b610600565b60405161019f919061307e565b60405180910390f35b3480156101b457600080fd5b506101cf60048036036101ca91908101906126d4565b610667565b6040516101dc9190612ff5565b60405180910390f35b3480156101f157600080fd5b5061020c600480360361020791908101906126d4565b61069a565b6040516102199190612ff5565b60405180910390f35b34801561022e57600080fd5b5061024960048036036102449190810190612646565b61071f565b005b34801561025757600080fd5b50610272600480360361026d91908101906126d4565b6108bb565b60405161028193929190613354565b60405180910390f35b34801561029657600080fd5b506102b160048036036102ac9190810190612540565b61097d565b005b6102cd60048036036102c891908101906127a0565b6109d6565b005b3480156102db57600080fd5b506102f660048036036102f191908101906127a0565b610b72565b005b34801561030457600080fd5b5061030d610d55565b60405161031a9190613339565b60405180910390f35b34801561032f57600080fd5b5061034a60048036036103459190810190612540565b610d5f565b005b34801561035857600080fd5b50610361610d7f565b60405161036e9190612ff5565b60405180910390f35b34801561038357600080fd5b5061039e600480360361039991908101906126d4565b610da5565b6040516103ab9190613339565b60405180910390f35b3480156103c057600080fd5b506103db60048036036103d691908101906126d4565b610dc5565b6040516103e89190612ff5565b60405180910390f35b3480156103fd57600080fd5b50610418600480360361041391908101906124db565b610e77565b6040516104259190613339565b60405180910390f35b34801561043a57600080fd5b50610443610f36565b6040516104509190613339565b60405180910390f35b34801561046557600080fd5b5061046e610fec565b60405161047b919061305c565b60405180910390f35b61049e600480360361049991908101906126d4565b61113e565b005b3480156104ac57600080fd5b506104c760048036036104c291908101906127a0565b6113ab565b005b3480156104d557600080fd5b506104f060048036036104eb9190810190612739565b61158e565b005b3480156104fe57600080fd5b506105196004803603610514919081019061260a565b6116a1565b005b34801561052757600080fd5b50610542600480360361053d919081019061258f565b61180d565b005b34801561055057600080fd5b50610559611869565b6040516105669190613339565b60405180910390f35b34801561057b57600080fd5b50610596600480360361059191908101906126fd565b61186f565b005b3480156105a457600080fd5b506105bf60048036036105ba9190810190612504565b61192e565b6040516105cc919061307e565b60405180910390f35b3480156105e157600080fd5b506105ea6119c2565b6040516105f79190612ff5565b60405180910390f35b6000806000837bffffffffffffffffffffffffffffffffffffffffffffffffffffffff19167bffffffffffffffffffffffffffffffffffffffffffffffffffffffff1916815260200190815260200160002060009054906101000a900460ff169050919050565b600a6020528060005260406000206000915054906101000a900473ffffffffffffffffffffffffffffffffffffffff1681565b60006106a5826119ec565b6106e4576040517f08c379a00000000000000000000000000000000000000000000000000000000081526004016106db90613319565b60405180910390fd5b600a600083815260200190815260200160002060009054906101000a900473ffffffffffffffffffffffffffffffffffffffff169050919050565b600061072a82610dc5565b90508073ffffffffffffffffffffffffffffffffffffffff168373ffffffffffffffffffffffffffffffffffffffff16141561079b576040517f08c379a000000000000000000000000000000000000000000000000000000000815260040161079290613259565b60405180910390fd5b8073ffffffffffffffffffffffffffffffffffffffff163373ffffffffffffffffffffffffffffffffffffffff1614610809576040517f08c379a0000000000000000000000000000000000000000000000000000000008152600401610800906132d9565b60405180910390fd5b82600a600084815260200190815260200160002060006101000a81548173ffffffffffffffffffffffffffffffffffffffff021916908373ffffffffffffffffffffffffffffffffffffffff160217905550818373ffffffffffffffffffffffffffffffffffffffff168273ffffffffffffffffffffffffffffffffffffffff167f8c5be1e5ebec7d5bd14f71427d1e84f3dd0314c0f7b2291e5b200ac8c7c3b92560405160405180910390a4505050565b6006602052806000526040600020600091509050806000015490806001015490806002018054600181600116156101000203166002900480601f0160208091040260200160405190810160405280929190818152602001828054600181600116156101000203166002900480156109735780601f1061094857610100808354040283529160200191610973565b820191906000526020600020905b81548152906001019060200180831161095657829003601f168201915b5050505050905083565b6109873382611a58565b6109c6576040517f08c379a00000000000000000000000000000000000000000000000000000000081526004016109bd906132f9565b60405180910390fd5b6109d1838383611b36565b505050565b6109e03383611d65565b610a1f576040517f08c379a0000000000000000000000000000000000000000000000000000000008152600401610a1690613119565b60405180910390fd5b610a276122e3565b600660008481526020019081526020016000206040518060600160405290816000820154815260200160018201548152602001600282018054600181600116156101000203166002900480601f016020809104026020016040519081016040528092919081815260200182805460018160011615610100020316600290048015610af25780601f10610ac757610100808354040283529160200191610af2565b820191906000526020600020905b815481529060010190602001808311610ad557829003601f168201915b505050505081525050905060405180606001604052808260000151815260200183836020015101815260200182604001518152506006600085815260200190815260200160002060008201518160000155602082015181600101556040820151816002019080519060200190610b69929190612304565b50905050505050565b600760009054906101000a900473ffffffffffffffffffffffffffffffffffffffff1673ffffffffffffffffffffffffffffffffffffffff163373ffffffffffffffffffffffffffffffffffffffff1614610c02576040517f08c379a0000000000000000000000000000000000000000000000000000000008152600401610bf990613239565b60405180910390fd5b610c0a6122e3565b600660008481526020019081526020016000206040518060600160405290816000820154815260200160018201548152602001600282018054600181600116156101000203166002900480601f016020809104026020016040519081016040528092919081815260200182805460018160011615610100020316600290048015610cd55780601f10610caa57610100808354040283529160200191610cd5565b820191906000526020600020905b815481529060010190602001808311610cb857829003601f168201915b505050505081525050905060405180606001604052808260000151815260200183836020015101815260200182604001518152506006600085815260200190815260200160002060008201518160000155602082015181600101556040820151816002019080519060200190610d4c929190612304565b50905050505050565b6000600554905090565b610d7a8383836040518060200160405280600081525061180d565b505050565b600760009054906101000a900473ffffffffffffffffffffffffffffffffffffffff1681565b600060066000838152602001908152602001600020600101549050919050565b6000806008600084815260200190815260200160002060009054906101000a900473ffffffffffffffffffffffffffffffffffffffff169050600073ffffffffffffffffffffffffffffffffffffffff168173ffffffffffffffffffffffffffffffffffffffff161415610e6e576040517f08c379a0000000000000000000000000000000000000000000000000000000008152600401610e6590613099565b60405180910390fd5b80915050919050565b60008073ffffffffffffffffffffffffffffffffffffffff168273ffffffffffffffffffffffffffffffffffffffff161415610ee8576040517f08c379a0000000000000000000000000000000000000000000000000000000008152600401610edf906131d9565b60405180910390fd5b610f2f600360008473ffffffffffffffffffffffffffffffffffffffff1673ffffffffffffffffffffffffffffffffffffffff168152602001908152602001600020611e32565b9050919050565b60008073ffffffffffffffffffffffffffffffffffffffff163373ffffffffffffffffffffffffffffffffffffffff161415610fa7576040517f08c379a0000000000000000000000000000000000000000000000000000000008152600401610f9e90613279565b60405180910390fd5b600960003373ffffffffffffffffffffffffffffffffffffffff1673ffffffffffffffffffffffffffffffffffffffff16815260200190815260200160002054905090565b60608060055460405190808252806020026020018201604052801561102b57816020015b611018612384565b8152602001906001900390816110105790505b50905060008090505b60055481101561113657600660008281526020019081526020016000206040518060600160405290816000820154815260200160018201548152602001600282018054600181600116156101000203166002900480601f0160208091040260200160405190810160405280929190818152602001828054600181600116156101000203166002900480156111095780601f106110de57610100808354040283529160200191611109565b820191906000526020600020905b8154815290600101906020018083116110ec57829003601f168201915b50505050508152505082828151811061111e57fe5b60200260200101819052508080600101915050611034565b508091505090565b6111483382611d65565b611187576040517f08c379a000000000000000000000000000000000000000000000000000000000815260040161117e906132b9565b60405180910390fd5b60066000828152602001908152602001600020600101543410156111e0576040517f08c379a00000000000000000000000000000000000000000000000000000000081526004016111d790613219565b60405180910390fd5b6111f2816111ed8361069a565b61186f565b60006111fd82610dc5565b9050600960008273ffffffffffffffffffffffffffffffffffffffff1673ffffffffffffffffffffffffffffffffffffffff1681526020019081526020016000206000815480929190600190039190505550600960003373ffffffffffffffffffffffffffffffffffffffff1673ffffffffffffffffffffffffffffffffffffffff16815260200190815260200160002060008154809291906001019190505550336008600084815260200190815260200160002060006101000a81548173ffffffffffffffffffffffffffffffffffffffff021916908373ffffffffffffffffffffffffffffffffffffffff1602179055508073ffffffffffffffffffffffffffffffffffffffff166108fc670de0b6b3a764000034029081150290604051600060405180830381858888f19350505050158015611340573d6000803e3d6000fd5b50813373ffffffffffffffffffffffffffffffffffffffff168273ffffffffffffffffffffffffffffffffffffffff167f9ed053bb818ff08b8353cd46f78db1f0799f31c9e4458fdb425c10eccd2efc443460405161139f9190613339565b60405180910390a45050565b600760009054906101000a900473ffffffffffffffffffffffffffffffffffffffff1673ffffffffffffffffffffffffffffffffffffffff163373ffffffffffffffffffffffffffffffffffffffff161461143b576040517f08c379a0000000000000000000000000000000000000000000000000000000008152600401611432906130b9565b60405180910390fd5b6114436122e3565b600660008481526020019081526020016000206040518060600160405290816000820154815260200160018201548152602001600282018054600181600116156101000203166002900480601f01602080910402602001604051908101604052809291908181526020018280546001816001161561010002031660029004801561150e5780601f106114e35761010080835404028352916020019161150e565b820191906000526020600020905b8154815290600101906020018083116114f157829003601f168201915b505050505081525050905060405180606001604052808260000151815260200183836020015103815260200182604001518152506006600085815260200190815260200160002060008201518160000155602082015181600101556040820151816002019080519060200190611585929190612304565b50905050505050565b3373ffffffffffffffffffffffffffffffffffffffff16600760009054906101000a900473ffffffffffffffffffffffffffffffffffffffff1673ffffffffffffffffffffffffffffffffffffffff161461161e576040517f08c379a000000000000000000000000000000000000000000000000000000000815260040161161590613139565b60405180910390fd5b604051806060016040528060055481526020018481526020018281525060066000600554815260200190815260200160002060008201518160000155602082015181600101556040820151816002019080519060200190611680929190612304565b5090505061169082600554611e40565b600160055401600581905550505050565b3373ffffffffffffffffffffffffffffffffffffffff168273ffffffffffffffffffffffffffffffffffffffff161415611710576040517f08c379a000000000000000000000000000000000000000000000000000000000815260040161170790613179565b60405180910390fd5b80600b60003373ffffffffffffffffffffffffffffffffffffffff1673ffffffffffffffffffffffffffffffffffffffff16815260200190815260200160002060008473ffffffffffffffffffffffffffffffffffffffff1673ffffffffffffffffffffffffffffffffffffffff16815260200190815260200160002060006101000a81548160ff0219169083151502179055508173ffffffffffffffffffffffffffffffffffffffff163373ffffffffffffffffffffffffffffffffffffffff167f17307eab39ab6107e8899845ad3d59bd9653f200f220920489ca2b5937696c3183604051611801919061307e565b60405180910390a35050565b61181884848461097d565b61182484848484611ffa565b611863576040517f08c379a000000000000000000000000000000000000000000000000000000000815260040161185a906130d9565b60405180910390fd5b50505050565b60055481565b8073ffffffffffffffffffffffffffffffffffffffff16600a600084815260200190815260200160002060009054906101000a900473ffffffffffffffffffffffffffffffffffffffff1673ffffffffffffffffffffffffffffffffffffffff16141561192a576000600a600084815260200190815260200160002060006101000a81548173ffffffffffffffffffffffffffffffffffffffff021916908373ffffffffffffffffffffffffffffffffffffffff1602179055505b5050565b6000600460008473ffffffffffffffffffffffffffffffffffffffff1673ffffffffffffffffffffffffffffffffffffffff16815260200190815260200160002060008373ffffffffffffffffffffffffffffffffffffffff1673ffffffffffffffffffffffffffffffffffffffff16815260200190815260200160002060009054906101000a900460ff16905092915050565b6000600760009054906101000a900473ffffffffffffffffffffffffffffffffffffffff16905090565b60008073ffffffffffffffffffffffffffffffffffffffff166008600084815260200190815260200160002060009054906101000a900473ffffffffffffffffffffffffffffffffffffffff1673ffffffffffffffffffffffffffffffffffffffff1614159050919050565b6000611a6382612111565b611aa2576040517f08c379a0000000000000000000000000000000000000000000000000000000008152600401611a99906131b9565b60405180910390fd5b6000611aad83610dc5565b90508073ffffffffffffffffffffffffffffffffffffffff168473ffffffffffffffffffffffffffffffffffffffff161480611b1c57508373ffffffffffffffffffffffffffffffffffffffff16611b048461069a565b73ffffffffffffffffffffffffffffffffffffffff16145b80611b2d5750611b2c818561192e565b5b91505092915050565b8273ffffffffffffffffffffffffffffffffffffffff16611b5682610dc5565b73ffffffffffffffffffffffffffffffffffffffff1614611bac576040517f08c379a0000000000000000000000000000000000000000000000000000000008152600401611ba390613299565b60405180910390fd5b600073ffffffffffffffffffffffffffffffffffffffff168273ffffffffffffffffffffffffffffffffffffffff161415611c1c576040517f08c379a0000000000000000000000000000000000000000000000000000000008152600401611c1390613159565b60405180910390fd5b611c2581612183565b611c6c600360008573ffffffffffffffffffffffffffffffffffffffff1673ffffffffffffffffffffffffffffffffffffffff168152602001908152602001600020612241565b611cb3600360008473ffffffffffffffffffffffffffffffffffffffff1673ffffffffffffffffffffffffffffffffffffffff168152602001908152602001600020612264565b816001600083815260200190815260200160002060006101000a81548173ffffffffffffffffffffffffffffffffffffffff021916908373ffffffffffffffffffffffffffffffffffffffff160217905550808273ffffffffffffffffffffffffffffffffffffffff168473ffffffffffffffffffffffffffffffffffffffff167fddf252ad1be2c89b69c2b068fc378daa952ba7f163c4a11628f55a4df523b3ef60405160405180910390a4505050565b6000611d70826119ec565b611daf576040517f08c379a0000000000000000000000000000000000000000000000000000000008152600401611da6906131b9565b60405180910390fd5b6000611dba83610dc5565b90508073ffffffffffffffffffffffffffffffffffffffff168473ffffffffffffffffffffffffffffffffffffffff161480611e2957508373ffffffffffffffffffffffffffffffffffffffff16611e118461069a565b73ffffffffffffffffffffffffffffffffffffffff16145b91505092915050565b600081600001549050919050565b600073ffffffffffffffffffffffffffffffffffffffff168273ffffffffffffffffffffffffffffffffffffffff161415611eb0576040517f08c379a0000000000000000000000000000000000000000000000000000000008152600401611ea7906130f9565b60405180910390fd5b611eb9816119ec565b15611ef9576040517f08c379a0000000000000000000000000000000000000000000000000000000008152600401611ef0906131f9565b60405180910390fd5b816008600083815260200190815260200160002060006101000a81548173ffffffffffffffffffffffffffffffffffffffff021916908373ffffffffffffffffffffffffffffffffffffffff160217905550600960008373ffffffffffffffffffffffffffffffffffffffff1673ffffffffffffffffffffffffffffffffffffffff16815260200190815260200160002060008154809291906001019190505550808273ffffffffffffffffffffffffffffffffffffffff16600073ffffffffffffffffffffffffffffffffffffffff167fddf252ad1be2c89b69c2b068fc378daa952ba7f163c4a11628f55a4df523b3ef60405160405180910390a45050565b600061201b8473ffffffffffffffffffffffffffffffffffffffff1661227a565b6120285760019050612109565b60008473ffffffffffffffffffffffffffffffffffffffff1663150b7a02338887876040518563ffffffff1660e01b81526004016120699493929190613010565b602060405180830381600087803b15801561208357600080fd5b505af1158015612097573d6000803e3d6000fd5b505050506040513d601f19601f820116820180604052506120bb91908101906126ab565b905063150b7a0260e01b7bffffffffffffffffffffffffffffffffffffffffffffffffffffffff1916817bffffffffffffffffffffffffffffffffffffffffffffffffffffffff1916149150505b949350505050565b6000806001600084815260200190815260200160002060009054906101000a900473ffffffffffffffffffffffffffffffffffffffff169050600073ffffffffffffffffffffffffffffffffffffffff168173ffffffffffffffffffffffffffffffffffffffff161415915050919050565b600073ffffffffffffffffffffffffffffffffffffffff166002600083815260200190815260200160002060009054906101000a900473ffffffffffffffffffffffffffffffffffffffff1673ffffffffffffffffffffffffffffffffffffffff161461223e5760006002600083815260200190815260200160002060006101000a81548173ffffffffffffffffffffffffffffffffffffffff021916908373ffffffffffffffffffffffffffffffffffffffff1602179055505b50565b6122596001826000015461228d90919063ffffffff16565b816000018190555050565b6001816000016000828254019250508190555050565b600080823b905060008111915050919050565b6000828211156122d2576040517f08c379a00000000000000000000000000000000000000000000000000000000081526004016122c990613199565b60405180910390fd5b600082840390508091505092915050565b60405180606001604052806000815260200160008152602001606081525090565b828054600181600116156101000203166002900490600052602060002090601f016020900481019282601f1061234557805160ff1916838001178555612373565b82800160010185558215612373579182015b82811115612372578251825591602001919060010190612357565b5b50905061238091906123a5565b5090565b60405180606001604052806000815260200160008152602001606081525090565b6123c791905b808211156123c35760008160009055506001016123ab565b5090565b90565b6000813590506123d981613596565b92915050565b6000813590506123ee816135ad565b92915050565b600081359050612403816135c4565b92915050565b600081519050612418816135c4565b92915050565b600082601f83011261242f57600080fd5b813561244261243d826133bf565b613392565b9150808252602083016020830185838301111561245e57600080fd5b612469838284613543565b50505092915050565b600082601f83011261248357600080fd5b8135612496612491826133eb565b613392565b915080825260208301602083018583830111156124b257600080fd5b6124bd838284613543565b50505092915050565b6000813590506124d5816135db565b92915050565b6000602082840312156124ed57600080fd5b60006124fb848285016123ca565b91505092915050565b6000806040838503121561251757600080fd5b6000612525858286016123ca565b9250506020612536858286016123ca565b9150509250929050565b60008060006060848603121561255557600080fd5b6000612563868287016123ca565b9350506020612574868287016123ca565b9250506040612585868287016124c6565b9150509250925092565b600080600080608085870312156125a557600080fd5b60006125b3878288016123ca565b94505060206125c4878288016123ca565b93505060406125d5878288016124c6565b925050606085013567ffffffffffffffff8111156125f257600080fd5b6125fe8782880161241e565b91505092959194509250565b6000806040838503121561261d57600080fd5b600061262b858286016123ca565b925050602061263c858286016123df565b9150509250929050565b6000806040838503121561265957600080fd5b6000612667858286016123ca565b9250506020612678858286016124c6565b9150509250929050565b60006020828403121561269457600080fd5b60006126a2848285016123f4565b91505092915050565b6000602082840312156126bd57600080fd5b60006126cb84828501612409565b91505092915050565b6000602082840312156126e657600080fd5b60006126f4848285016124c6565b91505092915050565b6000806040838503121561271057600080fd5b600061271e858286016124c6565b925050602061272f858286016123ca565b9150509250929050565b60008060006060848603121561274e57600080fd5b600061275c868287016124c6565b935050602061276d868287016123ca565b925050604084013567ffffffffffffffff81111561278a57600080fd5b61279686828701612472565b9150509250925092565b600080604083850312156127b357600080fd5b60006127c1858286016124c6565b92505060206127d2858286016124c6565b9150509250929050565b60006127e88383612f87565b905092915050565b6127f98161350d565b82525050565b61280881613499565b82525050565b600061281982613427565b6128238185613455565b93508360208202850161283585613417565b8060005b85811015612871578484038952815161285285826127dc565b945061285d83613448565b925060208a01995050600181019050612839565b50829750879550505050505092915050565b61288c816134ab565b82525050565b600061289d82613432565b6128a78185613466565b93506128b7818560208601613552565b6128c081613585565b840191505092915050565b60006128d68261343d565b6128e08185613477565b93506128f0818560208601613552565b6128f981613585565b840191505092915050565b600061290f8261343d565b6129198185613488565b9350612929818560208601613552565b61293281613585565b840191505092915050565b600061294a601083613488565b91507f4e6f204173736574206973207265616c000000000000000000000000000000006000830152602082019050919050565b600061298a600d83613488565b91507f4e6f742061204d616e61676572000000000000000000000000000000000000006000830152602082019050919050565b60006129ca603283613488565b91507f4552433732313a207472616e7366657220746f206e6f6e20455243373231526560008301527f63656976657220696d706c656d656e74657200000000000000000000000000006020830152604082019050919050565b6000612a30601383613488565b91507f5a65726f416464726573734d696e6974696e67000000000000000000000000006000830152602082019050919050565b6000612a70601583613488565b91507f4e6f7420616e20617070726f766564204f776e657200000000000000000000006000830152602082019050919050565b6000612ab0600e83613488565b91507f4e6f742053757065727669736f720000000000000000000000000000000000006000830152602082019050919050565b6000612af0602483613488565b91507f4552433732313a207472616e7366657220746f20746865207a65726f2061646460008301527f72657373000000000000000000000000000000000000000000000000000000006020830152604082019050919050565b6000612b56601983613488565b91507f4552433732313a20617070726f766520746f2063616c6c6572000000000000006000830152602082019050919050565b6000612b96601e83613488565b91507f536166654d6174683a207375627472616374696f6e206f766572666c6f7700006000830152602082019050919050565b6000612bd6602c83613488565b91507f4552433732313a206f70657261746f7220717565727920666f72206e6f6e657860008301527f697374656e7420746f6b656e00000000000000000000000000000000000000006020830152604082019050919050565b6000612c3c602a83613488565b91507f4552433732313a2062616c616e636520717565727920666f7220746865207a6560008301527f726f2061646472657373000000000000000000000000000000000000000000006020830152604082019050919050565b6000612ca2600e83613488565b91507f416c7265616479204d696e7465640000000000000000000000000000000000006000830152602082019050919050565b6000612ce2601483613488565b91507f5061796d656e7420756e73756666696369656e740000000000000000000000006000830152602082019050919050565b6000612d22600d83613488565b91507f4e6f742061206d616e61676572000000000000000000000000000000000000006000830152602082019050919050565b6000612d62600d83613488565b91507f43757272656e74204f776e6572000000000000000000000000000000000000006000830152602082019050919050565b6000612da2602283613488565b91507f42616c616e636520717565727920666f7220746865207a65726f20616464726560008301527f73730000000000000000000000000000000000000000000000000000000000006020830152604082019050919050565b6000612e08602983613488565b91507f4552433732313a207472616e73666572206f6620746f6b656e2074686174206960008301527f73206e6f74206f776e00000000000000000000000000000000000000000000006020830152604082019050919050565b6000612e6e601983613488565b91507f4e65697468657220617070726f766564206f72206f776e6572000000000000006000830152602082019050919050565b6000612eae600f83613488565b91507f4e6f74206173736574206f776e657200000000000000000000000000000000006000830152602082019050919050565b6000612eee603183613488565b91507f4552433732313a207472616e736665722063616c6c6572206973206e6f74206f60008301527f776e6572206e6f7220617070726f7665640000000000000000000000000000006020830152604082019050919050565b6000612f54600f83613488565b91507f546f6b656e206e6f7420657869737400000000000000000000000000000000006000830152602082019050919050565b6000606083016000830151612f9f6000860182612fd7565b506020830151612fb26020860182612fd7565b5060408301518482036040860152612fca82826128cb565b9150508091505092915050565b612fe081613503565b82525050565b612fef81613503565b82525050565b600060208201905061300a60008301846127ff565b92915050565b600060808201905061302560008301876127f0565b61303260208301866127ff565b61303f6040830185612fe6565b81810360608301526130518184612892565b905095945050505050565b60006020820190508181036000830152613076818461280e565b905092915050565b60006020820190506130936000830184612883565b92915050565b600060208201905081810360008301526130b28161293d565b9050919050565b600060208201905081810360008301526130d28161297d565b9050919050565b600060208201905081810360008301526130f2816129bd565b9050919050565b6000602082019050818103600083015261311281612a23565b9050919050565b6000602082019050818103600083015261313281612a63565b9050919050565b6000602082019050818103600083015261315281612aa3565b9050919050565b6000602082019050818103600083015261317281612ae3565b9050919050565b6000602082019050818103600083015261319281612b49565b9050919050565b600060208201905081810360008301526131b281612b89565b9050919050565b600060208201905081810360008301526131d281612bc9565b9050919050565b600060208201905081810360008301526131f281612c2f565b9050919050565b6000602082019050818103600083015261321281612c95565b9050919050565b6000602082019050818103600083015261323281612cd5565b9050919050565b6000602082019050818103600083015261325281612d15565b9050919050565b6000602082019050818103600083015261327281612d55565b9050919050565b6000602082019050818103600083015261329281612d95565b9050919050565b600060208201905081810360008301526132b281612dfb565b9050919050565b600060208201905081810360008301526132d281612e61565b9050919050565b600060208201905081810360008301526132f281612ea1565b9050919050565b6000602082019050818103600083015261331281612ee1565b9050919050565b6000602082019050818103600083015261333281612f47565b9050919050565b600060208201905061334e6000830184612fe6565b92915050565b60006060820190506133696000830186612fe6565b6133766020830185612fe6565b81810360408301526133888184612904565b9050949350505050565b6000604051905081810181811067ffffffffffffffff821117156133b557600080fd5b8060405250919050565b600067ffffffffffffffff8211156133d657600080fd5b601f19601f8301169050602081019050919050565b600067ffffffffffffffff82111561340257600080fd5b601f19601f8301169050602081019050919050565b6000819050602082019050919050565b600081519050919050565b600081519050919050565b600081519050919050565b6000602082019050919050565b600082825260208201905092915050565b600082825260208201905092915050565b600082825260208201905092915050565b600082825260208201905092915050565b60006134a4826134e3565b9050919050565b60008115159050919050565b60007fffffffff0000000000000000000000000000000000000000000000000000000082169050919050565b600073ffffffffffffffffffffffffffffffffffffffff82169050919050565b6000819050919050565b60006135188261351f565b9050919050565b600061352a82613531565b9050919050565b600061353c826134e3565b9050919050565b82818337600083830152505050565b60005b83811015613570578082015181840152602081019050613555565b8381111561357f576000848401525b50505050565b6000601f19601f8301169050919050565b61359f81613499565b81146135aa57600080fd5b50565b6135b6816134ab565b81146135c157600080fd5b50565b6135cd816134b7565b81146135d857600080fd5b50565b6135e481613503565b81146135ef57600080fd5b5056fea365627a7a72315820296d518ac78c20580d5bfa969b6de8adca7db06269176249da8a8191baf3f47b6c6578706572696d656e74616cf564736f6c63430005110040",
  "source": "pragma solidity ^0.5.8;\npragma experimental ABIEncoderV2;\n\nimport \"./helper_contracts/ERC721.sol\";\n\n///@title Real Estate Exchange\n///@author Roberto Carlos\n///@notice This contract represents a property exchange market\n\ncontract RealEstate is ERC721 {\n    struct Asset {\n        uint256 assetId;\n        uint256 price;\n        string cid;\n    }\n\n    uint256 public assetsCount;\n    mapping(uint256 => Asset) public assetMap;\n\n    address public supervisor;\n\n    mapping(uint256 => address) private assetOwner;\n    mapping(address => uint256) private ownedAssetsCount;\n    mapping(uint256 => address) public assetApprovals;\n\n    constructor() public {\n        supervisor = msg.sender;\n    }\n\n\n    //Events\n    event Transfer(address indexed from, address indexed to, uint256 indexed tokenId, uint256 price);\n    event Approval(address indexed owner, address indexed approved, uint256 indexed tokenId);\n\n    function exposeSupervisor() public view returns (address) {\n        return supervisor;\n    }\n\n    /// Functions inherit from ERC721 ///\n\n    function balanceOf() public view returns (uint256) {\n        require(msg.sender != address(0), \"Balance query for the zero address\");\n\n        return ownedAssetsCount[msg.sender];\n    }\n\n    function ownerOf(uint256 assetId) public view returns (address) {\n        address owner = assetOwner[assetId];\n        require(owner != address(0), 'No Asset is real');\n        return owner;\n    }\n\n    function transferFrom(uint256 assetId) public payable {\n        require(isApprovedOrOwner(msg.sender, assetId), 'Neither approved or owner');\n        require(msg.value >= assetMap[assetId].price, 'Payment unsufficient');\n        clearApproval(assetId, getApproved(assetId));\n        address payable _seller = address(uint160(ownerOf(assetId)));\n\n        ownedAssetsCount[_seller]--;\n\n        ownedAssetsCount[msg.sender]++;\n        assetOwner[assetId] = msg.sender;\n        _seller.transfer(msg.value * 1000000000000000000);\n        emit Transfer(_seller, msg.sender, assetId, msg.value);\n    }\n\n    function approve(address to, uint256 assetId) public {\n        address owner = ownerOf(assetId);\n        require(to != owner, \"Current Owner\");\n        require(msg.sender == owner, \"Not asset owner\");\n        assetApprovals[assetId] = to;\n        emit Approval(owner, to, assetId);\n    }\n\n    function getApproved(uint256 assetId) public view returns (address) {\n        require(exists(assetId), \"Token not exist\");\n        return assetApprovals[assetId];\n    }\n\n    // Additional functions added to the token //\n\n    function assetValue(uint256 assetId) public view returns(uint256) {\n        return assetMap[assetId].price;\n    }\n\n    function allAssets() public view returns(Asset[] memory) {\n        Asset[] memory helper = new Asset[](assetsCount); // -- always be aware of array length --\n        for (uint i = 0; i < assetsCount; i++) {\n            helper[i] = assetMap[i];\n        }\n        return helper;\n    }\n\n    function addAsset(uint256 price, address to, string memory _cid) public {\n        require(supervisor == msg.sender, 'Not Supervisor');\n        assetMap[assetsCount] = Asset(assetsCount, price, _cid);\n        mint(to, assetsCount);\n        assetsCount = assetsCount+1;\n    }\n\n    function clearApproval(uint256 assetId, address approved) public {\n        if(assetApprovals[assetId] == approved) {\n            assetApprovals[assetId] = address(0);\n        }\n    }\n\n    function build(uint256 assetId, uint256 value) public payable {\n         require(isApprovedOrOwner(msg.sender, assetId), \"Not an approved Owner\");\n         Asset memory oldAsset = assetMap[assetId];\n         assetMap[assetId] = Asset(oldAsset.assetId, oldAsset.price+value, oldAsset.cid);\n    }\n\n    function appreciate(uint256 assetId, uint256 value) public {\n        require(msg.sender == supervisor, \"Not a manager\");\n        Asset memory oldAsset = assetMap[assetId];\n        assetMap[assetId] = Asset(oldAsset.assetId, oldAsset.price+value, oldAsset.cid);\n    }\n\n    function depreciate(uint256 assetId,uint256 value) public {\n        require(msg.sender==supervisor,\"Not a Manager\");\n        Asset memory oldAsset = assetMap[assetId];\n        assetMap[assetId] = Asset(oldAsset.assetId, oldAsset.price - value, oldAsset.cid);\n    }\n\n    function getAssetsSize() public view returns(uint){\n        return assetsCount;\n    }\n\n    // Functions used internally by another functions //\n\n    function mint(address to, uint256 assetId) internal {\n        require(to != address(0), \"ZeroAddressMiniting\");\n        require(!exists(assetId), \"Already Minted\");\n        assetOwner[assetId] = to;\n        ownedAssetsCount[to]++;\n        emit Transfer(address(0), to, assetId);\n    }\n\n    function exists(uint256 assetId) internal view returns (bool) {\n        return assetOwner[assetId] != address(0);\n    }\n\n     function isApprovedOrOwner(address spender, uint256 assetId) internal view returns (bool) {\n        require(exists(assetId), \"ERC721: operator query for nonexistent token\");\n        address owner = ownerOf(assetId);\n        return (spender == owner || getApproved(assetId) == spender);\n    }\n\n    // Unused ERC721 functions //\n    event ApprovalForAll(address indexed owner, address indexed operator, bool approved);\n\n    bytes4 private constant _ERC721_RECEIVED = 0x150b7a02;\n\n    mapping (address => mapping (address => bool)) private _operatorApprovals;\n\n    function setApprovalForAll(address to, bool approved) public {\n        require(to != msg.sender, \"ERC721: approve to caller\");\n        _operatorApprovals[msg.sender][to] = approved;\n        emit ApprovalForAll(msg.sender, to, approved);\n    }\n}",
  "sourcePath": "/Users/robertocarlos/Desktop/research/house-contract/logic/contracts/RealEstate.sol",
  "compiler": {
    "name": "solc",
    "version": "0.5.17+commit.d19bba13.Emscripten.clang"
  },
  "schemaVersion": "3.0.20",
  "updatedAt": "2020-06-14T21:03:48.238Z",
  "networkType": "ethereum",
  "devdoc": {
    "author": "Roberto Carlos",
    "methods": {
      "balanceOf(address)": {
        "details": "Gets the balance of the specified address.",
        "params": {
          "owner": "address to query the balance of"
        },
        "return": "uint256 representing the amount owned by the passed address"
      },
      "isApprovedForAll(address,address)": {
        "details": "Tells whether an operator is approved by a given owner.",
        "params": {
          "operator": "operator address which you want to query the approval of",
          "owner": "owner address which you want to query the approval of"
        },
        "return": "bool whether the given operator is approved by the given owner"
      },
      "safeTransferFrom(address,address,uint256)": {
        "details": "Safely transfers the ownership of a given token ID to another address If the target address is a contract, it must implement `onERC721Received`, which is called upon a safe transfer, and return the magic value `bytes4(keccak256(\"onERC721Received(address,address,uint256,bytes)\"))`; otherwise, the transfer is reverted. Requires the msg.sender to be the owner, approved, or operator",
        "params": {
          "from": "current owner of the token",
          "to": "address to receive the ownership of the given token ID",
          "tokenId": "uint256 ID of the token to be transferred"
        }
      },
      "safeTransferFrom(address,address,uint256,bytes)": {
        "details": "Safely transfers the ownership of a given token ID to another address If the target address is a contract, it must implement `onERC721Received`, which is called upon a safe transfer, and return the magic value `bytes4(keccak256(\"onERC721Received(address,address,uint256,bytes)\"))`; otherwise, the transfer is reverted. Requires the msg.sender to be the owner, approved, or operator",
        "params": {
          "_data": "bytes data to send along with a safe transfer check",
          "from": "current owner of the token",
          "to": "address to receive the ownership of the given token ID",
          "tokenId": "uint256 ID of the token to be transferred"
        }
      },
      "supportsInterface(bytes4)": {
        "details": "See `IERC165.supportsInterface`.     * Time complexity O(1), guaranteed to always use less than 30 000 gas."
      },
      "transferFrom(address,address,uint256)": {
        "details": "Transfers the ownership of a given token ID to another address. Usage of this method is discouraged, use `safeTransferFrom` whenever possible. Requires the msg.sender to be the owner, approved, or operator.",
        "params": {
          "from": "current owner of the token",
          "to": "address to receive the ownership of the given token ID",
          "tokenId": "uint256 ID of the token to be transferred"
        }
      }
    },
    "title": "Real Estate Exchange"
  },
  "userdoc": {
    "methods": {
      "balanceOf()": {
        "notice": "Functions inherit from ERC721 ///"
      }
    },
    "notice": "This contract represents a property exchange market"
  }
}